:020000040800F2
:100000009857002005030008155A000803510008FE
:10001000A1580008751F0008316A000800000000A0
:100020000000000000000000000000004502000881
:100030005527000800000000A10200085D640008C8
:100040001F0300081F0300081F0300081F03000808
:100050001F0300081F0300087D2700081F03000876
:100060001F0300081F0300081F0300081F030008E8
:100070001F0300087D2400081F03000889240008CE
:1000800095240008A12400081F0300081F0300088E
:10009000791F00081F030008851F00088327000838
:1000A0001F0300081D6500081F0300081F03000848
:1000B0001F0300081F0300081F0300081F03000898
:1000C0001F0300081F0300081F0300081F03000888
:1000D0001F0300081F030008256A00081F0300080B
:1000E0001F0300081F0300081F0300081F03000868
:1000F0001F0300081F0300081F0300081F03000858
:100100001F0300081F0300081F0300081F03000847
:10011000F96500081F0300081F0300081F030008FB
:10012000AD2400081F0300081F030008B9240008BD
:100130001F03000800000000000000001F0300086B
:10014000911F00081F0300089D1F00081F030008DF
:100150001F0300081F0300081F0300081F030008F7
:100160001F0300081F0300081F0300081F030008E7
:100170001F0300081F03000800000000000000002B
:100180001F0300081F03000800F002F800F04AF8FF
:100190000AA090E8000C82448344AAF10107DA45E2
:1001A00001D100F03FF8AFF2090EBAE80F0013F0EA
:1001B000010F18BFFB1A43F00103184730AC0000D1
:1001C00050AC0000103A24BF78C878C1FAD8520762
:1001D00024BF30C830C144BF04680C6070470000C1
:1001E0000023002400250026103A28BF78C1FBD840
:1001F000520728BF30C148BF0B6070471FB50AF0D7
:1002000091FB00F049FE0400002000210AF03CF9B7
:10021000401C6060002000210AF020F9E0601FBD52
:1002200010B510BD00F016FB1146FFF7E7FF07F011
:10023000CBFB00F05DFB03B4FFF7F2FF03BC00F063
:1002400025FE00002C4B19680868B0E8F04F80F3D9
:100250000988BFF36F8F4FF0000080F3118870475B
:100260000000000008480068006880F308884FF02C
:10027000000080F3148862B661B6BFF34F8FBFF3FE
:100280006F8F00DF00BF00BF08ED00E0DFF80C005B
:10029000016841F470010160704700BF88ED00E023
:1002A000EFF30980BFF36F8F134B1A681EF0100F26
:1002B00008BF20ED108A20E9F04F106009B44FF01C
:1002C000500080F31188BFF34F8FBFF36F8F09F099
:1002D000F9F84FF0000080F3118809BC196808682C
:1002E000B0E8F04F1EF0100F08BFB0EC108A80F39A
:1002F0000988BFF36F8F70477C000020EFF3058003
:10030000704700000948804709480047FEE7FEE7BC
:10031000FEE7FEE7FEE7FEE7FEE7FEE7FEE7FEE7B5
:1003200004480549054A064B704700000D65000862
:100330008901000898510020985700209853002008
:100340009853002053EA020C00F069802DE9F04B2D
:100350004FF00006002B1FBFB3FA83F503FA05F434
:1003600024FA05F65E4012BF1643B2FA82F502FA8D
:1003700005F4C5F120051EBF22FA05FC44EA0C0471
:10038000203556EA044C4FEA144418BF641C4FF061
:1003900000084FF00009904271EB030C39D300299B
:1003A00019BFB1FA81F701FA07F6B0FA80F700FA3F
:1003B00007F6C7F120071EBF20FA07FC46EA0C0625
:1003C0002037B6FBF4FCA7EB0507103F07F01F0B27
:1003D000CBF120060CFA0BFB2CFA06F644BFB34611
:1003E0000026202FA4BF5E464FF0000B5BEA060CF0
:1003F00008BF4FF0010B19EB0B09ABFB027C48EB7C
:100400000608C01B06FB02CC0BFB03CC71EB0C01F6
:10041000C1E70B46024641464846BDE8F08B13B59E
:100420004FF000004FF00001AFF30080BDE81C402A
:100430007047401ECAB210F8011F8A4202D000293C
:10044000F9D10020704740EA010370B59B072ED117
:100450004FF00136042A2AD308C810C99D1B9D43BA
:10046000121F15EAC61517D0D8B2E1B2401A50EAE9
:10047000056110D198B2A1B2401A50EA05410AD1E3
:1004800023F07F4024F07F41401A50EA052102D139
:10049000180EA0EB146070BDA342DBD018BA21BACD
:1004A000884201D9012070BD4FF0FF3070BD0AB9FC
:1004B000002070BD10F8013B11F8014B63B1A3425D
:1004C0000AD1521E08D010F8013B11F8014B1BB1A4
:1004D000A34201D1521EEDD1181B70BD032A40F278
:1004E000308010F0030C00F0158011F8013BBCF1D6
:1004F000020F624498BF11F801CB00F8013B38BFEE
:1005000011F8013BA2F1040298BF00F801CB38BFFB
:1005100000F8013B11F0030300F06780083AC0F0D7
:10052000088051F8043B083A51F804CBA0E80810C1
:10053000F5E7121D5CBF51F8043B40F8043BAFF3F4
:100540000080D20724BF11F8013B11F801CB48BF4E
:1005500011F8012B24BF00F8013B00F801CB48BF84
:1005600000F8012B7047431A28BF9A427FF6B6AFB6
:10057000032A1044114440F2268010F0030F1EBFDE
:1005800011F8013D521E00F8013D10F0030F7FF4F9
:10059000F6AF11F0030300F0B780083AC0F00B800B
:1005A00051F8043D083A51F804CD40F8043D40F8B4
:1005B00004CDFFF7F3BF121D5CBF51F8043D40F8B6
:1005C000043DAFF30080D20724BF11F8013D11F8BC
:1005D00001CD48BF11F8012C24BF00F8013D00F8FF
:1005E00001CD48BF00F8012C704710B5203AC0F08B
:1005F0000B80B1E81850203AA0E81850B1E8185024
:10060000A0E81850BFF4F5AF5FEA027C24BFB1E860
:100610001850A0E8185044BF18C918C0BDE81040D1
:100620005FEA827C24BF51F8043B40F8043B08BFDA
:100630007047D20728BF31F8023B48BF11F8012BA1
:1006400028BF20F8023B48BF00F8012B704702F09A
:10065000FF0343EA032242EA024200F081B84FF06E
:10066000000200B5134694469646203922BFA0E802
:100670000C50A0E80C50B1F12001BFF4F7AF09070E
:1006800028BFA0E80C5048BF0CC05DF804EB8900FF
:1006900028BF40F8042B08BF704748BF20F8022B42
:1006A00011F0804F18BF00F8012B7047704770475A
:1006B000704710B500F074F8006810BD10B504461E
:1006C00000F06EF8046010BD7CB505460023684656
:1006D000CDE9003300F086F86946284606F06AFE48
:1006E0007CBD431A28BF9A427FF67FAF104410F0BA
:1006F000030F11441EBF11F8013D521E00F8013DC9
:1007000010F0030F7FF4F6AF103AC0F00A8010B576
:1007100031E91850103A20E91850BFF4F9AFBDE89C
:100720001040530724BF31E9081020E9081044BFE6
:1007300051F8043D40F8043D12F0030F08BF704724
:10074000D20728BF31F8023D48BF11F8012C28BF5D
:1007500020F8023D48BF00F8012C70474FF000021E
:100760000429C0F0128010F0030C3FF47AAFCCF1F2
:10077000040CBCF1020F18BF00F8012BA8BF20F831
:10078000022BA1EB0C01FFF76CBF5FEAC17C24BF19
:1007900000F8012B00F8012B48BF00F8012B70472F
:1007A00000487047385100200FB4002300B589B0CD
:1007B0000CA900910B99CB60214B7B440693214BF4
:1007C0007B44079304236FF00042CDE901321E4AB7
:1007D0007A446B460892024600200AF08BF909B071
:1007E0005DF814FB70B506464FF0FF3015460C4619
:1007F000324686B00091CDE901016946002004909F
:1008000004A8FFF7D1FF02460498211825B108B1CA
:10081000084600E020462860049800280DD0002AF1
:1008200002DD0098884208D03246081B69460094D1
:10083000CDE9010404A8FFF7B7FF06B070BD0000C2
:10084000F30000000B010000CB00000000487047DF
:10085000385100207546FFF7F9FFAE46050069469E
:10086000534620F00700854618B020B5FFF758FD25
:10087000BDE820404FF000064FF000074FF00008A1
:100880004FF0000B21F00701AC46ACE8C009ACE822
:10089000C009ACE8C009ACE8C0098D46704710B586
:1008A000044600F02FF80068005D00F0010010BD64
:1008B000426842B1016811F8013B23B1521EC0E900
:1008C0000012184670470121C160881E70474268B7
:1008D0005AB1C368016843B983688B4205D0491E89
:1008E000521CC0E90012002070474FF0FF307047E3
:1008F00010B50446AFF300802046BDE81040FFF776
:100900009ABC000010B500F0C7FA001D10BD00BF72
:10091000799B00002DE9FF4F06468BB00878FF2831
:1009200006D0491C2D2805D000244FF0000908E00E
:1009300000200CE00124F8E709EB8903491C00EBD7
:1009400043090878FF28F7D114B1C9F100008146A6
:10095000107800252C46AA4629462D2801D02B28A0
:1009600004D1521C2D2813D0002082468B461078CB
:10097000FF280FD04FF0000C0A21521CA5FB017874
:1009800004FB018105FB0C11C5194BEB0104EEE7DB
:100990000120EAE7002108464FF00000BAF1000FFD
:1009A00002D000EB80004008C0F38157012F01DD29
:1009B0004FF0FF370E9955EA040009EB01080BD000
:1009C0004FF0020918F5FA7F16DA4FEACA70002FC5
:1009D000706008DD012007E04FEACA70C6E900B088
:1009E0000FB0BDE8F08F00203060FFF7D9FEC0F8EF
:1009F00000901821084616E0B8F5FA7F18DD002FA0
:100A000002DAF748784401E0F6487844D0E900106B
:100A1000C6E9001040EACA707060FFF7C1FEC0F876
:100A20000090142108460FB0BDE8F04F09F0FFBF59
:100A3000002108464FF00000B8F10001099002DAE9
:100A4000C7F1000200E03A4601DAC8F1000106A849
:100A500000F026FA06AB93E8070003AB83E8070033
:100A600044F23E005BEA04010090584604D144F28F
:100A70001E012C465D460091210C0904014306D15C
:100A80000099240444EA15442D041039009104F01F
:100A90007F41014306D10099240244EA15642D02E6
:100AA0000839009104F07041014306D100992401F6
:100AB00044EA15742D01091F009104F040410143DF
:100AC00006D10099A40044EA9574AD00891E0091F6
:100AD00004F00041084304D100986D196441401EA0
:100AE00000904FF001033A466846B8F1000FCDE997
:100AF000014503A902DD00F01EFF01E000F0F1FE58
:100B0000BAF1000F04460D4601D084F000440021E4
:100B100008464FF00000099940F2FF77484010F076
:100B20000C0F07D124F00040284303D0C4F30A502F
:100B3000B84212D1FFF734FEC0F80090C4F30A5057
:100B4000B8420AD1A8487844D0E90010C6E900109C
:100B500004F000410843706042E7C6E900543FE7F3
:100B60002DE9FF4F1F464FF0000A4FF0FF38454672
:100B700091B0D7E90146CDF83CA000F08DF9C068EE
:100B80000168405C1090B96912986D1C8847396AF9
:100B9000814688470028F6D1B9F1FF3F0AD0002EE0
:100BA00024F4D06411DDB9F12B0F08D0B9F12D0F69
:100BB0000BD102E0404615B013E744F48064B969F4
:100BC00012986D1C8847761E8146600504A901D5E0
:100BD0002D2000E02B20002E01F1010B0DF130083B
:100BE0008DF810003FDDB9F1690F08D0B9F1490F58
:100BF00005D0B9F16E0F02D0B9F14E0F1CD13B46B2
:100C000001A8009580E85002DDE912126FF00200A1
:100C100009F074FFC11CCED10EE0B96912986D1CA9
:100C2000884781461398761E44F4007405600F9837
:100C3000401C002E0F9016DDB9F1300FEDD0B9F148
:100C4000780F02D0B9F1580F0DD10F9801280AD1B1
:100C50003B46CDE90054DDE91212001F029609F06F
:100C60004BFFC11CA7D1109989453ED144F08004A7
:100C700006E01399681CAAF1010A44F400740860A4
:100C8000B9696D1C1298761E884730288146F0D0CD
:100C90002BE01099894505D1200603D4761E44F037
:100CA000800418E0484606F043FC08B3761E0DF1B8
:100CB00023018B4544F4007408D2A9F130000BF8ED
:100CC000010B200607D5AAF1010003E0200602D49B
:100CD0000AF101008246A00502D51399681C08603C
:100CE000B96912986D1C88478146002ED1DC53E00B
:100CF000002E51DDB9F1650F02D0B9F1450F4BD18E
:100D0000A00549D5B9696D1C1298761E24F440746B
:100D10008847002E81460CDD2B2804D0B9F12D0F19
:100D200007D144F48074B96912986D1C8847761E07
:100D30008146E00501D52D2100E02B2108F8011B9B
:100D4000CDF8008021E0761E0DF13901884544F48C
:100D500000740CD2A9F1300010F0FF0088F80000F8
:100D600002D10099884509D908F1010806E0E0059B
:100D700001D51E4801E042F20F708246B96912980F
:100D80006D1C8847814613980560002E04DD484697
:100D900006F0CEFB0028D6D1F96912988847FF20CB
:100DA00053468BF8000088F8000000200A900B9052
:100DB00004AA0CA90AA8FFF7ADFDA00502D46FF0A4
:100DC0000100F8E614F0240F12D0E0071CD13868B7
:100DD000DDE90A12031D3B600068C0E9001213E060
:100DE0000CA40000FEA30000C2A20000F1D8FFFF87
:100DF0000AA9684606F0DEFAE00705D13868009ACD
:100E0000011D3960006802602846D4E64FF0013CBD
:100E100050F8042B51F8043B9A4221D1A2EB0C0369
:100E2000934313EACC1317D150F8042B51F8043B29
:100E30009A4215D1A2EB0C03934313EACC130BD1C6
:100E400050F8042B51F8043B9A4209D1A2EB0C0351
:100E5000934313EACC13DBD04FF00000704700BF80
:100E6000D01A01BAB1FA81F101F0180122FA01F0A9
:100E7000CB40C1F12001DBB2C0B2C01A2CFA01F3A1
:100E8000D11A914311EAC311E6D1704701491820E4
:100E9000ABBEFEE726000200004870475851002014
:100EA0002DE9F047814616468AB0354878440DC88A
:100EB0008DE80D0032487844801C03AC0DC884E8EE
:100EC0000D0041F69B300844372190FBF1F290FB76
:100ED000F1F5A5F1800501FB12041B3C02D564422B
:100EE000012000E00020DFF898A080460027FA44A7
:100EF000AAF1BE0A0EE0E0070AD03246684607EBC8
:100F0000470101230AEB810100F000FD8DE8070095
:100F100064107F1C002CEED1194F7F44AE3F19E0C6
:100F2000E80715D007EB04100DF1180A90E80E0041
:100F30008AE80E00C068F04201D198190890324644
:100F4000012306A903A800F0E1FC03AB83E8070036
:100F50006D10641C002DE3D14FF001033246694649
:100F6000B8F1000F03A802D000F0A6FC01E000F0E9
:100F7000CDFCC9E90001C9F808200AB0BDE8F08736
:100F8000A09E0000704700002DE9FF4F1F464FF064
:100F90003C0987B04FF00042DDE9141001F101086F
:100FA000DDF858A002EA40500390002005908346E7
:100FB000054604460490B969461E08988847AAF178
:100FC000010A0290BAF1000F3BDD02982E2815D0DD
:100FD000102100F016FA00282EDB4FF0010B0599C6
:100FE000014317D0B9F1000F0BDB4A46C11700F0DF
:100FF000F5F905430C43A9F1040905E0012004902B
:101000000BE008B145F0010501200590049820B9D6
:10101000361D02E0049800B1361FB969089808F13E
:1010200001088847BBF1000FAAF1010A0290C9D05C
:101030000999C1F80080C5E70298702808D05028A7
:1010400006D0F96908988847BBF1000F14D04FE02B
:10105000002002900120BBF1000F049009D0B96973
:10106000089808F101088847AAF10109B9F1000FB1
:1010700007DCF969089888476FF001000BB0BDE8FC
:10108000F08F2B2804D02D280CD14FF0FF30049086
:10109000B969089808F101088847A9F10109B9F16F
:1010A000000FE6DD411CE4D00A2100F0AAF9002877
:1010B000DFDB029908F1010801EB810100EB41003F
:1010C0000290B969089888470A2100F09AF9099AAC
:1010D000A9F10109B9F1000FC2F8008001DD002873
:1010E000E7DAF969089888470499029800FB0166D5
:1010F00055EA040004D004F04041090002D006E0A3
:10110000039898E0A40044EA9574AD00B61E04F07C
:101110000041080002D16D196441761E159810F047
:10112000240F03D04FF00B095C4803E04FF028096F
:101130006FF07D008246564507DAAAEB0601894426
:10114000B9F1410F01DD4FF0410901200021A9F162
:10115000010200F043F9024628400B4621400843B3
:1011600001D0012100E00021501E029143F1FF3126
:1011700028402140084301D0012000E000200299CE
:10118000834651EA0B014FD0002108464FF0000082
:10119000039900F4400039B100EB80004FF44001A6
:1011A00000EBD07001EA60008015012802DD4FF0ED
:1011B000FF3000E013D0401C36D0029860B3BBF182
:1011C000000F0CD14A460120002100F007F9284009
:1011D0002140084301D0012000E00020E0B10120BF
:1011E0004A46002100F0FAF8034640190A466141D8
:1011F0002D1A8C4111D3B9F1400F09DD159810F06B
:10120000240F02D0AAF1340603E0AAF1170600E089
:10121000761C00254FF0004406E05B1E42F1FF32D1
:1012200020EA030521EA0204CAF10100B04206DA0D
:101230001B49039808430190002000900EE0039A98
:10124000C4F3D321E80A0A43164940EA44500A434A
:101250003146CDE90002684606F060F9159810F0B5
:10126000240F0BD01598C00715D13868DDE900129E
:10127000031D3B600068C0E900120CE002A869464B
:1012800006F098F81598C00705D13868029A011D34
:101290003960006802604046F0E6000002FCFFFF93
:1012A0000000F07F0000F03F2DE9FF4F92461D4601
:1012B00085B04FF00041DDE9124BDDE914727F1E6D
:1012C00001EA4B50414940F0FF4940EA0108002142
:1012D00022F020004928049102D04E2828D04CE06A
:1012E0003BA0012607C88DE80700A9690698641C81
:1012F00088477F1E014606D41DF8060018B121F06C
:10130000200181420BD0E96906988847032E34D02A
:10131000082E32D06FF0010009B0BDE8F08F761CC6
:10132000032E01D0082EE0D1601CCAF80000DCE7D3
:10133000A9690698641C88477F1E2AD420F02000E3
:10134000412826D1A9690698641C88477F1E20D4AD
:1013500020F020004E281CD1A9690698641C8847FB
:101360007F1E48F4002849F48009CAF8004001D4DF
:10137000282806D0E969069888475FEACB7012D022
:1013800022E0A9690698641C88477F1E01D40028C2
:1013900003DAE96906988847BCE72928F1D1641C7B
:1013A000CAF80040E9E71BF0240F07D02868049929
:1013B000031D2B600068C0E9001805E02868021DC5
:1013C0002A600068C0F800902046A5E70000F07F82
:1013D000494E46494E49545900000000B2F12003DD
:1013E0000AD5C2F1200301FA02F120FA03F300FA50
:1013F00002F041EA0301704700FA03F14FF00000E8
:1014000070473A2800D2303820F02002412A01D318
:10141000A2F13700884201D34FF0FF30704720F02F
:101420007F4C80EA030023F07F47ACEB070303F512
:101430007C5300F0004003F1FF032DE980494FEA9F
:10144000154B09B44FEA144325EA0B4E24EA03482E
:101450000FF2042606EB132749083E785FEA3202B2
:1014600003FB0667C7F5000707FB06F64FEA54378C
:101470004FEAD64606F1020607FB066CCCF1005C8B
:101480004FEA1C472CEA074C07FB06F40CFB06F559
:1014900004EB15464FEA961634BF00204FF000408B
:1014A0004FEAD13706FB07FC4FEA1C4C0CFB0BF74D
:1014B000D21B03FB0CF761EB07010CFB0EF7B0EB43
:1014C000074072EB17420CFB08F734BFA2EB074250
:1014D000B2EB074261EB17414FEA0C444FEA910728
:1014E00006FB07FC4FEA1C4C0CFB0BF7B0EBC740AC
:1014F00072EB573203FB0CF734BFA2EBC742B2EBDF
:10150000C74261EB57310CFB0EF7B0EBC70072EB33
:1015100057720CFB08F734BFA2EBC702B2EBC7024D
:1015200061EB5771039F4FEA816141EA921104EB2D
:10153000CC044FEAD1374FEA826206FB07FC42EA4D
:1015400090124FEA80604FEA1C4C0CFB0BF7D21B49
:1015500003FB0CF761EB07010CFB0EF7B0EB074048
:1015600072EB17420CFB08F734BFA2EB0742B2EB59
:10157000074261EB17414FEA8C554FEA910704EBA4
:101580009C2406FB07FC4FEA1C4C0CFB0BF7B0EB52
:10159000C74072EB573203FB0CF734BFA2EBC742D4
:1015A000B2EBC74261EB57310CFB0EF7B0EBC70053
:1015B00072EB57720CFB08F734BFA2EBC702B2EB19
:1015C000C70261EB577115EB4C254FEA816141EA87
:1015D00092114FEA82624FEAD13742EA901206FB3B
:1015E00007FC44F100044FEA80604FEA1C4C0CFBFE
:1015F0000BF7D21B03FB0CF761EB07010CFB0EF79B
:10160000B0EB074072EB17420CFB08F734BFA2EBBC
:101610000742B2EB074261EB174115EB1C154FEA8D
:10162000813141EA92414FEA823242EA90424FEAE6
:1016300080304FEA0C7644F1000448EA03434EEA56
:101640000B484FF0000EB2EB080C71EB030724BF00
:10165000624639464EEB0E0E4FF0000B0018524119
:1016600049414BEB0B0BB2EB080C71EB03077BF121
:10167000000B24BF624639464EEB0E0E4FF0000BB6
:101680000018524149414BEB0B0BB2EB080C71EBCC
:1016900003077BF1000B24BF624639464EEB0E0E6A
:1016A00051EA020718BF46F0010616EB0E7655F117
:1016B000000254F1000103D5BDE88901BDE80088AE
:1016C000BDE88901BDE80048B619524141EB01016E
:1016D000A3F10103704780807F7E7D7C7B7A7978DF
:1016E000777676757473727171706F6E6E6D6C6CE7
:1016F0006B6A6A6968686766666564646363626189
:101700006160605F5F5E5E5D5D5C5C5B5B5A5A5909
:101710005958585757565655555554545353525275
:101720005251515050504F4F4F4E4E4D4D4D4C4CCD
:101730004C4B4B4B4A4A4A49494948484847474716
:101740004746464645454544444444434343434253
:10175000424242414141000046EA0646A3F5705329
:101760004FEA164646EA42564FEAD22242EA415230
:1017700010B54FEAD121A3F1010300F02FF820F0BA
:10178000004000F1020C00F0004701EB0050114650
:10179000BCF5006F40EA070000D210BDBAF1000F9F
:1017A0000AD01CB503B44FF004004FF004014FF011
:1017B00000000FBCBDE810404FF00001BBF1010F6D
:1017C000B9BF04484FF0FF310348002140EA070049
:1017D00010BD00BFFFFFEF7F0000F07F002B9C4695
:1017E00030D477002BD01CB54FEA370703B44FF045
:1017F00010004FF01001BAF1000F06D0BCF1000F3D
:10180000DCBF40F0080040F008014FF000000FBCC2
:10181000BDE810400BF1010BBBF1010F08BF5FEAFF
:10182000170722BF12F1010211F101014FF000412F
:1018300043F1000300F0004043EA00007047F9D391
:101840005708D0E746EA064613F1400F4FEA16461E
:101850001FDD13F1200FDFBF16430A46002120339E
:101860005B42BED0C3F1200746EA064602FA07F7FC
:101870004FEA164646EA0706C3F1200722FA03F2AA
:1018800001FA07F721FA03F14FF0000342EA0702D9
:10189000A7E746EA020646EA06464FEA164646EA41
:1018A0000106BCBF46EA0646360C4FF000034FF077
:1018B00000024FF0000194E72DE9804C9A469346D0
:1018C00070B491E8380007C831EA400C48BF34EAE8
:1018D000430C03D5FFF7A3FDFFF780FFF0BCBDE885
:1018E000008C2DE9804C9A46934670B491E83800FC
:1018F00007C831EA400C48BF34EA430C03D5FFF770
:101900008EFDFFF729FFF0BCBDE8008C2DE9804C6F
:101910009A46934670B491E8380007C810F0804F9B
:1019200008BF13F0804F03D100F01AF8FFF756FFFD
:10193000F0BCBDE8008C2DE9804C9A46934670B40B
:1019400091E8380007C810F0804F08BF13F0804FAF
:1019500003D100F005F8FFF7FFFEF0BCBDE8008CF6
:1019600020F07F4780EA030023F07F4C07EB0C0355
:10197000A3F57C5300F00040A3F1FE0392F0000FAA
:1019800000F0B38095F0000F00F077802DE9014959
:101990004FEA11404FEA144621EA004800FB06FCDA
:1019A00024EA064708FB06F607FB08F800FB07F7E2
:1019B00018EB06484CEB164C4FEA124B18EB074855
:1019C0004FEA15464CEB174022EA0B4E0BFB06FC88
:1019D00025EA06470EFB06F607FB0EFE0BFB07F794
:1019E0001EEB064E4CEB164C4FF000061EEB074E5E
:1019F0004CEB174B18EB0B0840F1000018EB0E0BEB
:101A000058EB000840F100008F1A4FF000013CBF76
:101A1000C943661B14BFB5EB040C00213CBFC9438E
:101A2000F61B4FEA17444EEA8E0E27EA04454FEAAA
:101A30001C4704FB07622CEA074C05FB07F70CFB6D
:101A400005F604FB0CFC16EB074642EB174216EBBF
:101A50000C4642EB1C421BEB060658EB02024141CE
:101A600046EA9E0601D5BDE80189B619524141EB0F
:101A70000101A3F10103BDE801894FEA14454FEAD2
:101A8000114724EA054621EA074C05FB07F406FB4B
:101A900007F70CFB06F105FB0CFC11EB074144EBCF
:101AA00017444FEA124711EB0C4144EB1C4422EA65
:101AB000074C05FB07F206FB07F70CFB06F605FBD8
:101AC0000CFC16EB074642EB174216EB0C4642EBBA
:101AD0001C456A1854F1000148BF7047B6195241BD
:101AE00041EB0101A3F10103704795F0000F37D0DE
:101AF0004FEA11424FEA144721EA024624EA074C12
:101B000002FB07F106FB07F70CFB06F402FB0CFCDB
:101B100014EB074441EB17414FEA154714EB0C4413
:101B200041EB1C4125EA074C02FB07F506FB07F7D2
:101B30000CFB06F602FB0CFC16EB074645EB1745C3
:101B400016EB0C4645EB1C42121951F1000148BF3F
:101B50007047B619524141EB0101A3F101037047EF
:101B60004FEA14454FEA114724EA054621EA074C9B
:101B700005FB07F106FB07F70CFB06F24FF000062A
:101B800005FB0CFC12EB074241EB174112EB0C4238
:101B900051EB1C4148BF7047921841EB0101A3F182
:101BA00001037047002801D090F832007047000010
:101BB0002DE9FF4F85B01646129F05007ED0002903
:101BC000FCD0002EFAD0002FF8D07E48007818B153
:101BD000022009B0BDE8F08FC5E9001608982881F9
:101BE000EF6013982882002485F8304085F8314052
:101BF00085F8324085F8334085F83440AC63EC63B7
:101C00002C646C643046089905F05EFE38461399E2
:101C100005F05AFE052001F0D7FC4FF001080DF148
:101C20000C09CDE900980023CDF8088031462846FC
:101C3000089A06F0F9FE002840D1CDE9009800236B
:101C4000CDF8088031462846089A06F0EDFE0028B7
:101C5000F2D19DF80C001E28EED14FF0B60A7E237B
:101C6000CDF800A031462846089A07F05DFC002810
:101C700024D1322001F0A8FC4FF0040B7D23CDF8D5
:101C800000B031462846089A07F04EFC002815D1CE
:101C9000052001F099FC7C23009431462846089ADF
:101CA00007F042FC002878D1052001F08DFCAB2024
:101CB0000090402331462846089A00E05AE007F099
:101CC00033FC002869D14123CDF8008031462846F5
:101CD000089A07F029FC00285FD1322001F074FC3B
:101CE000CDF80090CDE90184002339462846139AA7
:101CF00006F09AFEF0BB9DF80C000F284DD114237E
:101D0000CDF800A039462846139A07F00DFC88BB91
:101D1000322001F059FC0F23009439462846139ACB
:101D200007F002FC30BB0220009010233946284601
:101D3000139A07F0F9FBE8B91123009439462846B5
:101D4000139A07F0F1FBA8B91E2001F03DFC0A2010
:101D50000090532331462846089A07F0E5FB48B91E
:101D60005823CDF800B031462846089A07F0DCFB2E
:101D700000B900E011E046461623CDF80080394650
:101D80002846139A07F0D0FB38B918230096394635
:101D90002846139A07F0C8FB08B1012019E785F817
:101DA0003060284600F010F848B9802000901523D4
:101DB00039462846139A07F0B7FB0028EED085F87D
:101DC0003040EAE71C00002010B5044600F00CF893
:101DD00018B9204600F029F808B1012010BD2046AE
:101DE000BDE8104000F042B810B586B0040014D031
:101DF00094F8300088B194F8310010B1022006B098
:101E000010BD0122062103A88DE8070022891223B4
:101E10002046616806F008FE08B10120EFE703A93B
:101E2000204606F005F80020E9E710B586B004006A
:101E300014D094F8300088B194F8310010B1022029
:101E400006B010BD0022062103A88DE80700228AF3
:101E500002232046E16806F0E7FD08B10120EFE724
:101E600003A9204605F0FEFF0020E9E71FB50400A6
:101E700014D094F8300088B194F8310010B10220E9
:101E800004B010BD0122022103A88DE807002289B9
:101E900022232046616806F0C7FD08B10120EFE764
:101EA00003A9204606F07EF80020E9E770B504009B
:101EB00027D094F8300020B394F8310038B1A06BEB
:101EC000081A052803D90321204606F015FE94F8C8
:101ED0003400134DB8B1206802F042F821896068DF
:101EE00005F0F2FC218AE06805F0EEFC0020287085
:101EF00084F8310084F8320084F83400E06B401C30
:101F0000E063012070BD2878022802D028780428D8
:101F100004D1204605F09AFB0128F3D0002070BDC3
:101F20001C0000201CB530B190F8301019B190F8A9
:101F3000341041B901E001201CBD90F8311011B9F5
:101F40000B490A780AB102201CBD4860012180F8C3
:101F50003110002280F83220022280F8332008223B
:101F6000CDE9002102891223416806F0F7FE1CBD6D
:101F70001C000020FEE70000014800F092BE0000B7
:101F8000A4040020014800F08CBE0000A40400203E
:101F9000014800F086BE0000CC040020014800F09B
:101FA00080BE0000CC04002010B5044601460F4856
:101FB00006F0DCFF0D482146443006F0D7FF0B4801
:101FC00021468C3006F0D2FF08482146D03006F07A
:101FD000CDFF074890F82110002906D0416A611A08
:101FE000642902D9002180F8211010BD540100207D
:101FF0005802002030B500280CD0EFF3108172B6E3
:10200000054D2A6E6B6EAC6EED6E80E83C000029CB
:1020100000D162B630BD00004402002070B50C460D
:102020002DED028B82B0050078D0002C76D03E4892
:102030003E4A0021C0E90154116651669166D1669D
:102040009FED3B8A01700221F0EE480AB0EE480A8B
:10205000A2F5807003F004FA3448F0EE480AB0EEBE
:10206000480A0321BC3803F0FBF93048F0EE480A77
:10207000B0EE480A0221783800F08EFB2B48F0EED3
:10208000480AB0EE480A0521303803F081F92748A4
:10209000F0EE480AB0EE480A0121143000F028F9A9
:1020A00040F206200090C31E021F01900021284626
:1020B00005F074FA90BB1D4840F2052214300E2141
:1020C0000378204603F54073CDE9002305F066FA56
:1020D00020BB284601F076F800BB204601F072F8DC
:1020E000E0B900220521162001F046FC162001F07F
:1020F00036FC00220521422001F03EFC422001F086
:102100002EFC48F602763146284600F00EFC28B92F
:102110003146204600F009FC002800D0012002B022
:10212000BDEC028B70BD00000800002044020020BE
:102130000000000008B506F0FBFC00200346024644
:102140000146009005F00AFC08BD000030B52DEDF9
:10215000028BB0EE408A81B0B5EEC08AF1EE10FA83
:1021600004D8012001B0BDEC028B30BD01F05CFB56
:10217000FFF71AFF00F028F8E8B106F01FFDB0EEF7
:10218000480A104803F0B0F905460E48B0EE480A78
:10219000443003F0A9F904460A48B0EE480AD030AA
:1021A00003F03AF9034600200246009021462846F3
:1021B00005F0D4FBD6E701B0BDEC028BBDE83040A2
:1021C000FFF7B8BF440100200FB56846FFF712FFC4
:1021D0009DF80C0010B9BDF8080010B1002004B043
:1021E00000BD0120FBE70000F0B520482DED028B7B
:1021F00081B04168B0EE408A31B1806820B1B5EE5F
:10220000C08AF1EE10FA04D8012001B0BDEC028BB7
:10221000F0BD01F009FBFFF7C7FEB0EE480A144815
:1022200003F062F907461248B0EE480A443003F062
:102230005BF906460E48B0EE480A883000F00CFB09
:1022400005460B48B0EE480AD03003F0E5F80446E6
:10225000B0EE480A074800F0BDF8009023462A4631
:102260003146384605F07AFBCFE700000800002031
:102270004401002058020020002831D000292FD02E
:102280000378002B2CD0082B2AD80B88DFED150AF9
:102290005BBAC3F30C0300EE103A4380B8EE400A79
:1022A00020EE200ADFED100A20EE200ADFED0F0AF3
:1022B00080ED010A4B885BBA1BB200EE103AB8EE13
:1022C000C00A80EE201A80ED021A8B885BBA8383E5
:1022D0008B798377C979C1770121426280F8211017
:1022E00070470000DB0FC940000000390000C84201
:1022F00070B50D462DED028BB0EE608AF0EE408A8F
:1023000004001AD04C21FEF7AAF9681E072800D84D
:102310002570B7EE001A84ED061AF0EE480AB0EE0A
:10232000680ABDEC028B04F128009FED051ABDE898
:102330007040F0EE411A03F035BBBDEC028B70BD6E
:102340000000804610B528B122B11BB104780CB151
:10235000082C01D9002010BD042C05D840F2FE3411
:1023600014800078401E04E040F2FE44148000789F
:10237000401F4FF48042C0B2914202DC524291426F
:1023800000DA11460A0A03F8102003EB40004170FE
:10239000012010BD002800D001827047002801D024
:1023A00080ED030A7047000000280FD010EE101ACD
:1023B000B1F17E5F01DDB7EE000AB5EEC00AF1EEC5
:1023C00010FA01D29FED020A80ED060A7047000064
:1023D0000000000010B5040004D0B5EEC00AF1EE14
:1023E00010FA01D8002010BD94F8211004F1280043
:1023F00019B1217809B1082905D903F0EBFA0020B9
:1024000084F82000EEE794F8201011B394ED021A3E
:10241000D4ED050AD4ED061A31EE601A41EE810AB8
:10242000C4ED050AD4ED031AB0EE401AB0EE610A0D
:1024300003F038FA94ED100AB4F910104FF480420A
:10244000BDEEC00A014410EE100A904209DD1046AC
:102450000AE0D4ED020A0121C4ED050A84F8201037
:10246000E0E7002800DA0020814200DD014640421A
:10247000814200DA014608B210BD0000014800F0B8
:1024800031BF00009C060020014800F02BBF000077
:10249000FC060020014800F025BF00005C0700207A
:1024A000014800F01FBF0000BC070020014800F0F9
:1024B00019BF00004C050020014800F013BF0000C8
:1024C000AC05002001681823CAB2103AB2FBF3F23F
:1024D000054B6FF30901032A9B5CC36500D9091DF5
:1024E000816508467047000094AC000810B50146AD
:1024F00000208B698A6A4FF0C07453B1B3F5005F56
:1025000015D072B1012A0CD0022A0AD0032A09D1AF
:1025100004E01AB1012A06D0022A03D1C96AC9010E
:1025200000D5012010BDC96AA142FAD010BD002A11
:10253000F7D0012AF2D0022AF3D0032AF3D010BD3B
:1025400030B50468256825F480252560046863603B
:102550008368402B036803D099600068C26030BD77
:102560009A600068C16030BD00242DED068BA04646
:10257000B0B0C146CA462746254618212AA8FEF70C
:102580006EF8704E9FED70AADFF8C0B117E002A997
:102590001DA805F081FC90B100231A4602A93068FD
:1025A00005F01EFB58B100231A4604A9306805F057
:1025B000B9FA00231A4602A9306805F011FB1DA8DC
:1025C00004F038FA0028E2D11C2116A8FEF747F8DB
:1025D00001F02AF901465E48FFF768FC16A92AA80F
:1025E00006F022FC029001F01FF9642103F080FD47
:1025F00001F01AF9FFF7D8FC0BA803F089FD0028B9
:102600006BD01598B8427FD09DF8510010B99DF855
:102610005000E8B1002739460BA806F019F905204B
:1026200003F034FDB0EE408A062003F02FFDF0EEFB
:10263000408A072003F02AFDB0EE409A082003F0FC
:1026400025FD1C98F0EE409A27B140F0080003E009
:102650000127E0E740F010001C90EDB3E7B300EE77
:10266000904AB0EE480A04F06BFF48B19DED190A9C
:1026700030EE0A0A8DED190A1C9840F002001C90F9
:1026800000EE908AB0EE680A04F05AFF48B19DED62
:10269000190A30EE4A0A8DED190A1C9840F0020022
:1026A0001C9000EE909AB0EE490A04F049FF48B140
:1026B0009DED1A0A30EE0A0A8DED1A0A1C9840F0B8
:1026C00004001C9000EE90AAB0EE690A04F038FFF6
:1026D00010B19DED1A0A01E008E015E030EE4A0A5B
:1026E0008DED1A0A1C9840F004001C903D4618EE2F
:1026F000104A18EE908A19EE109A19EE90AA159FBA
:1027000001F092F81B9001E00298B8B116A80023DE
:10271000014600901A46DBF8000005F061FA68B146
:1027200000231A461DA9DBF8000005F0FBF9002381
:102730001A460099DBF8000005F052FA012005F076
:1027400097F93CE758000020920A063F5400002009
:10275000FC000020704700280FD000290DD00B8806
:102760005BBA03804B885BBA43808B885BBA8380FB
:10277000897981710121826001737047012000F025
:1027800049BF202000F046BF72B6FEE7002802D005
:102790001430FFF7E0BF704770B50D462DED028B8A
:1027A000B0EE608AF0EE408A040017D04821FDF7B1
:1027B00056FF2570B7EE000A84ED040AF0EE480AD1
:1027C000B0EE680ABDEC028B04F124009FED051AFF
:1027D000BDE87040F0EE411A03F0E4B8BDEC028BA6
:1027E00070BD00000060EA46002801D080ED010ABB
:1027F0007047000000280FD010EE101AB1F17E5F74
:1028000001DDB7EE000AB5EEC00AF1EE10FA01D212
:102810009FED020A80ED040A7047000000000000EE
:10282000002810D010EE101A074B084A994202DD1A
:102830009FED070A05E010EE101A914201D99FEDB5
:10284000050A80ED020A70470060EA460060EAC6A9
:102850000060EA460060EAC610B5B0EE401A040017
:1028600029D094F8200030B3B4F91600D4ED030A4F
:1028700000EE100AD4ED041A04F12400B8EEC00AE8
:1028800030EE600A41EE800AC4ED030A94ED010ABD
:1028900003F008F800EE100AD4ED020A0D4AB8EE73
:1028A000C00A0D4930EE200A10EE100A904204DDF5
:1028B0009FED0A0A07E0002010BD10EE100A8842C2
:1028C00001D99FED070ABDEEC00A10EE100A00B252
:1028D00010BD00000060EA460060EAC60060EA46FB
:1028E0000060EAC690F82020012A07D0022A05D00D
:1028F000416A41F48021416201207047CA0704D037
:102900000268936843F0800393608A0704D50268E5
:10291000936843F400439360490704D500688168D5
:1029200041F4000181600020704790F82020012AC6
:1029300007D0022A05D0416A41F48021416201207A
:102940007047006842690A43426100207047F0B551
:1029500090F820500468A468012D05D0022D03D002
:10296000416A41F4802157E014F0406F01D1E50045
:102970004FD5C4F301640125A5401D608D684FF457
:10298000C0739DB1CE6835434E6845EAC6050668FA
:1029900003EB0417F5514FF4C275076805EB0415F6
:1029A0000E697E51097D012905D009E00E88CD68A8
:1029B00045EA4655EBE701684E5946F480764E519C
:1029C0001179D579567941EA056195792D0445EA61
:1029D000062529434FF4C676056806EB0416A9516F
:1029E0001178D57841EA0561957852782D0445EA49
:1029F000022211434FF4C475026805EB04155151CE
:102A0000006803EB0411425842F0010242500020DA
:102A1000F0BD416A41F4001141620120F0BD0000A7
:102A200010B590F82020012A07D0022A05D0416A6B
:102A300041F480214162012010BD3B48D0F80022C2
:102A400042F00102C0F80022D0F8002222F47C52A9
:102A5000C0F80022D0F800224B6A42EA0322C0F8F4
:102A600000220A7D02F01F0301229A40D0F81C3296
:102A70009343C0F81C32CB69B3B9D0F80C329343FE
:102A8000C0F80C328C894B6864F31F434C6900EB2F
:102A9000C404C4F840320C890B6864F31F434C69CA
:102AA00000EBC404C4F84432CB69012B16D1D0F832
:102AB0000C321343C0F80C320C884B6864F31F438C
:102AC0004C6900EBC404C4F840320C89CB6864F351
:102AD0001F434C6900EBC404C4F844328B69002BDB
:102AE000D0F804320ED01343C0F804320B69002B27
:102AF000D0F8143208D01343C0F81432096A0129FF
:102B000004D008E09343EFE79343F5E7D0F81C12B5
:102B10001143C0F81C12D0F8001221F00101C0F8D6
:102B20000012002010BD000000640040144910B5E0
:102B30004A68904202D08968884220D100F024F887
:102B4000EFF3108272B60F494B685B1C4B600B6849
:102B50005B1C0B6000234B810B894FF6FF74A34273
:102B600002D20B895B1C0B8110F0060F02D1088981
:102B7000032801D301200873002A00D162B610BDDA
:102B800008000020A4020020406A7047024600208E
:102B900092F82030012B01D0022B05D1106821B111
:102BA000D0F8100000F003007047C068FAE770B575
:102BB00090F82040012C05D0022C03D0416A41F44A
:102BC000802128E0046809B32469A40720D04FF4C9
:102BD000D874056804EB01142D5915F004059560AF
:102BE00005682D591AD0ED08556005682C5904F078
:102BF0000204D4604FF4DA74056804EB01142E5912
:102C000006F00F06082E0CD308250DE0E468DCE77B
:102C1000416A41F400114162012070BD6D0D1560E3
:102C2000E3E72D5905F00F05156105682D59C5F32A
:102C30000725956105682C59240C54614FF4DC720A
:102C4000046802EB0112A4581C700468A458240AFA
:102C50005C700468A458240C9C700468A258120E7E
:102C6000DA704FF4DE72046802EB0112A4581C7192
:102C70000468A458240A5C710468A458240C9C714C
:102C80000468A258120EDA71006829B1016941F096
:102C900020010161002070BDC16841F02001C160C8
:102CA000F8E72DE9F05F0546006800244669D0F892
:102CB00004908768D0F80CB0D0F810A0D0F8188035
:102CC000F10748D0F90714D001218160B80703D576
:102CD000284600F0A4FA0CE0780702D54FF400640F
:102CE00007E0380702D54FF4805402E0284600F090
:102CF00095FAF80516D529684FF480708860B805F4
:102D000003D5284600F08DFA0CE0780502D544F48E
:102D1000005407E0380502D544F4804402E0284618
:102D200000F07EFAF80316D529684FF480308860E9
:102D3000B80303D5284600F076FA0CE0780302D5F4
:102D400044F4004407E0380302D544F4803402E040
:102D5000284600F067FA300707D55FEACB6004D554
:102D60002968102044F40074C86070074FF0080709
:102D700007D55FEA0B7004D52868C760284600F0C5
:102D8000ACF9B00706D52868C068800702D028468D
:102D900000F0A4F9700607D55FEACA6004D5296877
:102DA000102044F480640861B00607D55FEA0A7019
:102DB00004D528680761284600F000FAF00606D519
:102DC00028680069800702D0284600F0F8F9B003AF
:102DD00008D55FEAC96005D52968102048602846F3
:102DE00000F0EEF9F00307D55FEA097004D5286812
:102DF0004760284600F018FA300446D55FEA49706B
:102E000040D5F00504D55FEAC87001D044F0010454
:102E1000B00504D55FEA887001D544F0020470055E
:102E200004D55FEA487001D544F00404300529D583
:102E300018F0700F26D008F07000402815D006DC7E
:102E4000102809D020280AD0302816D10AE05028AE
:102E50000ED0602811D10EE044F008040DE044F0DB
:102E600010040AE044F0200407E044F0400404E0C9
:102E700044F0800401E044F480742868816921F002
:102E800070018161296804204860002C05D0686ABF
:102E9000204368622846FFF749FEBDE8F09F70B501
:102EA000040003D094F8200010B104E0012070BDAC
:102EB000204600F081F82068016841F001010160BE
:102EC00000F0B2FC0546052604E000F0ADFC401B16
:102ED0000A2811D820684068C007F6D02068016829
:102EE00021F00201016000F09FFC05460BE000F0BC
:102EF0009BFC401B0A2806D9606A40F400306062DF
:102F000084F82060D2E7206840688007EFD4207EF4
:102F10000128206801683DD021F080010160607EB9
:102F200001282068016838D021F040010160A07EAE
:102F300001282068016833D021F020010160E07E83
:102F40000128206801682ED041F010010160207F27
:102F500001282068016829D021F008010160607F04
:102F600001282068016824D021F004010160D4E91F
:102F700002010843D4E90412114308436168491E61
:102F800008432168C86100206062012084F82000A5
:102F9000002070BD41F08001C0E741F04001C5E76D
:102FA00041F02001CAE721F01001CFE741F008010C
:102FB000D4E741F00401D9E7F0B587B00446142105
:102FC0006846FDF74CFB374B3748DFF8D4E019680B
:102FD000D4F800C0344A0225032609271030002403
:102FE000491CF44524D11960012907D1016841F039
:102FF00000710160006800F000700590106840F0FA
:1030000001001060106802AB00F0010005904FF461
:10301000C050CDE9000583E8D0006946234800F0A0
:1030200005FB00220521142000F0A6FC142033E04B
:10303000DFF87CE0F44531D1D0F800C04CF0806C72
:10304000C0F800C0D0F800C001290CF0806CCDF8A9
:1030500014C0196007D1016841F000710160006877
:1030600000F000700590106840F0020010601068D9
:1030700002AB00F0020005904FF44050CDE900058E
:1030800083E8D00069460B4800F0D0FA0022052101
:10309000402000F071FC402000F061FC07B0F0BD62
:1030A0000064004068000020303802400000024008
:1030B000006800400004024090F820200021012A0E
:1030C00008D0022A06D0416A41F4802141620121E0
:1030D0000846704700224262FAE7704770B58AB02E
:1030E000064600F0A1FB0546314C58E007AB6A46A6
:1030F00000213046FFF75BFD002856D1029828BB1F
:10310000039818BB6068864228D10098A0F500712A
:10311000023902D1049908290ED0A0F500710339B3
:1031200002D1049908290BD0A0F50071063936D1D7
:103130000498082833D10AE02A4607A91D4803E06D
:103140001C482A4607A9443002F084F927E01948B0
:103150002A4607A98830FFF719FB20E0A0688642BD
:103160001DD10098A0F50071053902D104990829F4
:1031700009D01149097801F5407188420FD10498AE
:1031800008280CD106E00C482A4607A9443802F06A
:10319000F9F804E02A4607A90748FFF76DF800216F
:1031A0003046FFF7F3FC0028A0D10AB070BD000044
:1031B000080000204401002058020020704770479A
:1031C0007047000070B5044690F82000012804D034
:1031D000606A40F40020606218E0022084F8200059
:1031E0002068016821F00101016000F01DFB054627
:1031F0000EE000BF00F018FB401B0A2808D9606AE7
:1032000040F400306062052084F82000012070BD89
:1032100020684068C007EDD1606270BD704770479C
:10322000704770477047704770472DE9F04104467A
:10323000876D00F0F9FA064694F83500002502285B
:1032400006D08020606584F834500120BDE8F0810C
:103250002068016821F0160101602068416921F0B1
:1032600080014161206C08B9A06C20B12068016820
:1032700021F0080101602068016821F0010101606E
:103280000CE000F0D1FA801B052807D920206065EA
:10329000032084F8350084F83450D7E720680068AC
:1032A000C007EED194F85C103F208840B860012040
:1032B00084F8350084F834500020C7E790F83510C2
:1032C000022903D08021416501207047052180F843
:1032D00035100068016821F001010160002070478D
:1032E000406D70472DE9F84304464FF00009CDF8D2
:1032F000009063484FF41651A56D0068B0FBF1F7DC
:103300002E6894F85C10082000FA01F131420FD0C9
:1033100021680A6852070BD50A6822F004020A6085
:1033200094F85C108840A860606D40F00100606512
:1033300094F85C104FF0010808FA01F0304208D010
:1033400021684969090604D5A860606D40F0020053
:10335000606594F85C1004208840304208D02168F1
:103360000968890704D5A860606D40F004006065B5
:1033700094F85C1010208840304218D02168096809
:10338000090714D5A86020680168490304D50068BE
:10339000000308D5A16C07E00168C90503D40168E2
:1033A00021F008010160216C09B12046884794F89A
:1033B0005C1020208840304231D021680968C9065D
:1033C0002DD5A86094F8350005282068016806D03E
:1033D000490347D5006800031DD4616C1CE021F04F
:1033E000160101602068416921F080014161206C73
:1033F00008B9A06C20B12068016821F008010160C3
:1034000094F85C103F208840A86084F8358084F8E8
:103410003490216D1FE0E16B09B120468847606D53
:1034200000282BD0606DC00714D0052084F835002B
:103430002068016821F0010101600098401C0090A3
:10344000B84203D820680068C007F6D184F83580F8
:1034500084F83490E16C002910D001B02046BDE81A
:10346000F04308470168C905D5D4016821F010016F
:10347000016084F8358084F83490CCE7BDE8F883A7
:10348000780000202DE9F041044600F0CDF9064611
:103490005CB1022084F83500002584F8345020689F
:1034A000016821F0010101600DE00120BDE8F0811B
:1034B00000F0BAF9801B052805D92020606503209B
:1034C00084F83500F2E720680068C007F0D1226870
:1034D000116820480140D4E901031843D4E90336B8
:1034E0003343184363691843A3691843E3691843D6
:1034F000236A18430843616A042903D1D4E90B13F2
:1035000019430843106020684069666A20F007018B
:1035100030460E43012704280CD1A06A0643E06A16
:1035200040B12046FEF7E2FF20B14020606584F8FC
:103530003570BAE7206846612046FEF7C3FF94F86D
:103540005C203F2191408160656584F835700020E2
:10355000ACE700003F8010F02DE9F0410446866D95
:1035600090F83400002501280DD0012084F83400A3
:1035700094F835700020012F07D084F8340002251C
:103580002846BDE8F0810220FBE7022784F8357069
:1035900060652046FEF7D4FF94F85C103F20884019
:1035A000B0602068016841F016010160206C20B114
:1035B0002068016841F0080101602068016841F05D
:1035C00001010160DCE7000070B5044600F02CF951
:1035D0000546601C02D004480078044400F024F939
:1035E000401BA042FAD370BD6C0000200749202880
:1035F00005D0012802D14868401C4860704708681F
:10360000401C08600248FEF78DBC0000000000204E
:10361000FC000020044910B50A68024202D008608C
:10362000FFF7E4FF10BD0000143C01402DE9F84F06
:10363000DFF8BCA10022012503264FF00F090AF193
:10364000040BAAF1040E00BF0B6805FA02F4234034
:10365000A34270D10F7907F00307012F01D0022F89
:1036600016D187684FEA420806FA08FC27EA0C07D9
:10367000D1F80CC00CFA08FC4CEA070CC0F808C0E2
:103680004768A7430C79C4F3001494403C4344605A
:103690000C79E443A4070AD0C4684FEA420C06FA46
:1036A0000CF7BC438F6807FA0CF72743C7600C7907
:1036B00004F00304022C12D1D40800EB840CDCF8D3
:1036C00020405707FF0E09FA07F824EA0804D1F84A
:1036D000108008FA07F848EA0408CCF8208004684B
:1036E0004FEA420C06FA0CF7BC430F7907F00307C8
:1036F00007FA0CF7274307604C6814F4403F70D07A
:103700003C4C276847F480472760246822F0030771
:1037100004F480440094384C07EB040CDCF80848AF
:1037200097074FEA177809FA08F7BC43334FB842B6
:1037300002D1002724E054E0314FB84201D10127E3
:103740001EE0304FB84201D1022719E02E4FB84297
:1037500001D1032714E02D4FB84201D104270FE017
:103760002B4FB84201D105270AE02A4FB84201D1B8
:10377000062705E0284FB84201D1072700E00827B7
:1037800007FA08F72743CCF80878DAF800405746DC
:10379000D1F804C09C435FEACC2C00D51C433C60AC
:1037A000DBF800405F46D1F804C09C435FEA8C2CF4
:1037B00000D51C433C60DEF800407746D1F804C0D9
:1037C0009C435FEA8C3C00D51C433C60084F083F9B
:1037D0003C68D1F804C09C435FEACC3C00D51C4354
:1037E0003C60521C102AFFF42FAFBDE8F88F000098
:1037F000083C0140443802400030014000000240D3
:103800000004024000080240000C02400010024088
:103810000014024000180240001C02400AB18161FD
:1038200070470904FBE7000001488068704700000A
:103830006C00002002488168027811448160704762
:103840006C0000200B4810B5016841F40071016064
:10385000016841F480610160016841F48071016098
:10386000032000F0A9F80F2000F006F800F04AF855
:10387000002010BD003C024030B505461C4887B012
:103880000024016841F001010160006806A900F010
:103890000100009001A800F03BF900F069F915491A
:1038A0004000B0FBF1F11548134A491E026040F296
:1038B000E732C0E90324C0E90114846100F0E1FFAC
:1038C000040012D10D4801F00BF804000DD11920AD
:1038D00000F045F8102D07D200222946192000F0EB
:1038E0004BF80748056000E0012407B0204630BDD2
:1038F0004438024040420F00000001401C080020F4
:10390000700000200C4882B0016841F480410160E1
:10391000006800F4804000900748001F016841F0F3
:10392000805101600068002200F0805000900F215B
:10393000901E02B000F020B84438024000280DDB91
:1039400000F01F02012191404009800000F1E020B9
:10395000C0F88011BFF34F8FBFF36F8F70470028FF
:1039600009DB00F01F02012191404009800000F1B5
:10397000E020C0F800117047F0B40E4B1B680C46F5
:10398000C3F30223C3F10705042D00D90425191D33
:10399000072901D2002300E0DB1E012606FA05F10B
:1039A000491E214099409E40761E16403143F0BC8E
:1039B00003F04DB90CED00E0064900F0070208687D
:1039C0004FF6FF03184040EA0220034A1043086004
:1039D000704700000CED00E00000FA052DE9F0470B
:1039E0000E46050065D0DFF81481D8F80000F7B264
:1039F00000F00700B04207D288F80070D8F8000045
:103A000000F00700B04254D128683D4C810712D520
:103A1000400703D5206840F4E05020602878000774
:103A200003D5206840F4604020602068A96820F039
:103A3000F000084320602878C0072DD0304968681E
:103A40000839012812D0022813D0032811D00968A0
:103A5000890700292DDA216821F003010143216043
:103A6000FFF7E2FE814641F2883A0EE009688903D9
:103A7000EFE709688901ECE7FFF7D6FEA0EB090143
:103A8000514502D90320BDE8F0872068696800F03D
:103A90000C00B0EB810FEFD1D8F80010404601F0D8
:103AA0000701B14207D90770006800F00700B04273
:103AB00001D00120E7E72878400705D52068E968AC
:103AC00020F4E050084320602878000706D52068DD
:103AD000296920F4604040EAC100206000F058F8F5
:103AE0002168084AC1F30311515CC84006490860C7
:103AF00006480068FFF7C0FE0020C4E7003C024013
:103B0000083802409CAC00087800002070000020BB
:103B10000F2202600C4A136803F00303436013682A
:103B200003F0F0038360136803F4E053C36012688A
:103B30004FF4E05303EAD20202610448006800F047
:103B4000070008607047000008380240003C02404F
:103B50000448054900680968044AC1F38221515CA0
:103B6000C84070477800002008380240ACAC00081C
:103B70000448054900680968044AC1F34231515CB0
:103B8000C84070477800002008380240ACAC0008FC
:103B9000154810B5006810F00C02144813D01449F1
:103BA000042A0FD0082A0ED10F4C241F2268236844
:103BB00002F03F025B0207D52068C0F38810A0FB2B
:103BC000010106E0084610BD2168C1F38811A1FB80
:103BD00000010023FCF7B6FB2168C1F30141491C39
:103BE0004900B0FBF1F010BD083802400024F40099
:103BF00040787D012DE9F84F04006ED02078DFF881
:103C00004C93C007A9F104054AD009F104000168EA
:103C1000C1F38101012908D00068C0F381000228A6
:103C20000AD1D9F80000400206D52868800337D5AC
:103C300060680028E1D033E06068B0F5803F10D0C4
:103C4000B0F5A02F286810D020F4803028602868B4
:103C500020F4802028606068A8B1FFF7E5FD0646E3
:103C60000DE0286840F48030F4E740F480202860BC
:103C7000F7E700BFFFF7D8FD801B642873D82868DA
:103C80008003F7D50CE0FFF7CFFD064605E000BF47
:103C9000FFF7CAFD801B6428F0D828688003F7D49A
:103CA0002078DFF8AC8280074FF0000A3ED5A748A5
:103CB000001D016811F00C0F08D00068C0F38100EE
:103CC00002280BD1D9F80000400207D428688007E9
:103CD00016D5E068012800D112E033E1E068B8B100
:103CE0000120C8F80000FFF79FFD064605E000BF71
:103CF000FFF79AFD801B0228C0D828688007F7D5F7
:103D00002868216920F0F80040EAC10028600DE031
:103D1000C8F800A0FFF788FD064604E0FFF784FD21
:103D2000801B02281FD828688007F7D42078000756
:103D300022D5864F87486169703771B101210160D2
:103D4000FFF772FD064604E0FFF76EFD801B0228B8
:103D500009D838688007F7D50EE0C0F800A0FFF753
:103D600063FD064605E082E0FFF75EFD801B02284A
:103D70007DD838688007F7D42078400768D5DFF809
:103D8000CCB100270BF13C0BDBF80000C0000BD4DA
:103D9000DBF8001041F08051CBF80010DBF8000098
:103DA000012700F0805000906B4E3068C00510D4A1
:103DB000306840F480703060FFF736FD009005E019
:103DC000FFF732FD0099401A022850D83068C0052C
:103DD000F6D55E4EA0686C3601280FD005283068F5
:103DE00010D020F001003060306820F00400306016
:103DF000A068B8B1FFF718FD00900FE0306840F000
:103E00000100F4E740F004003060F7E7FFF70CFD35
:103E10000099411A41F28830814266D830688007A3
:103E2000F4D50EE0FFF700FD009007E0FFF7FCFC83
:103E30000099411A41F28830814256D83068800793
:103E4000F4D42FB1DBF8001021F08051CBF8001032
:103E5000A069C8B33D49091D0968C1F38101022960
:103E60004AD00228504607D0C8F8600000E03CE085
:103E7000FFF7DAFC04463BE04746C8F86000FFF76E
:103E8000D3FC064605E000BFFFF7CEFC801B0228EE
:103E90002BD828688001F7D4D4E907010843A16A28
:103EA0002E4A490802EB0141626A41EA8211084345
:103EB00094F82C1040EA0161C9F80010012038661E
:103EC000FFF7B2FC044606E03EE000BFFFF7ACFCA3
:103ED000001B022809D828688001F7D534E000BF0C
:103EE000FFF7A2FC001B022802D90320BDE8F88FCF
:103EF00028688001F4D427E00128F7D0D9F8000021
:103F0000E26900F4800191421CD1226A00F03F0175
:103F1000914217D147F6C071626A0140B1EB821F2E
:103F200010D1A26A4FF0FF3300F4403103EB52028C
:103F3000B1EB024F06D194F82C1000F07060B0EB9A
:103F4000016F01D00120D1E70020CFE70438024003
:103F500000004742800E4742007000400000FFFF13
:103F60002DE9FC410446444845F6C051002600684E
:103F7000B0FBF1F064214843019000902068416853
:103F800021F0200141602068416809060CD53B49B9
:103F90006164009900295DD0491E009194F8511088
:103FA0000729F6D101990091416849060BD534499A
:103FB00021640099F1B3491E009194F8511007292A
:103FC000F7D10199009140684FF0400780074FF00A
:103FD000000514D5A06C90B10565A06CFFF725F91C
:103FE00000B167652068416821F0020141602068E6
:103FF000009971B3491E009181688907F8D520683E
:104000004068C00711D0E06C78B10565E06CFFF73F
:104010000CF900B167652068016821F0400101607A
:104020002068416821F001014160E587E586606D07
:10403000402800E013E01CD065652068C1688168F5
:10404000009180680090012084F851003046BDE85E
:10405000FC8109E0616D41F040016165A2E7616D9D
:1040600041F040016165ACE7606D40F04000606583
:10407000C5E70126E1E7000078000020B9610008EB
:1040800061610008014605484068002805D00268C3
:104090008A4202D1012104F02FBD70471C0000208C
:1040A00070B5040009D0606A002540B125616561E2
:1040B000A56294F8510040B10CE0012070BD606829
:1040C000B0F5827FF4D0E561F2E784F850502046E5
:1040D00000F044F8022084F851002068016821F0C3
:1040E00040010160A088218900F4827001F404413C
:1040F0000843A18901F400610843217C01F0020119
:104100000843217D01F001010843218B01F4007176
:104110000843217F01F03801084394F8201001F092
:1041200080010843218D01F4005108432168086093
:10413000A069042101EA104094F8241001F0100154
:104140000843216848602068C16921F40061C161A9
:104150006565012084F85100002070BD2DE9F04113
:1041600086B0064614216846FCF779FA2B49306878
:10417000884250D12A480024016841F480510160EE
:10418000006800F48050059025481438016841F01B
:10419000010101600068694600F001000590E0201F
:1041A00000900220CDE90104032003900520049033
:1041B0001C48FFF73BFA1D4D1B484FF0C0672860B5
:1041C000C5E901744FF48068C5E903486C61AC61CE
:1041D000EC612C6228466C62FFF754F908B1FEF7D7
:1041E000D3FAF564AE63114D0F4860354830E5E809
:1041F00002074020A5E811010C4845F81449603039
:10420000AC61EC612C626C62FFF73CF908B1FEF71F
:10421000BBFAB564AE6306B0BDE8F0810030014082
:104220004438024000000240106402404C05002067
:104230002DE9F84F044690F851001D4616460F46EA
:10424000012838D1002F77D0002E75D060684FF04C
:104250000408B0F5827F01D1A06810B3FFF7E4FA3B
:10426000824694F85000012825D04FF0010984F8C7
:10427000509084F851804FF00008C4F85480A76330
:10428000A687E687C4F83080A4F83480A4F8368086
:10429000C4F84080C4F84480A068B0F5004F0CD04A
:1042A00015E084F85180009313460A46204600F03A
:1042B0001EF9BDE8F88F0220FBE72068016821F0B5
:1042C000400101602068016821F48041016020689C
:1042D0000168490603D4016841F040010160E068CB
:1042E000C0B134E020688168C90709D0007BA16BA8
:1042F0000870A06B401CA063E08F401EE08709E0BF
:10430000FFF792FAA0EB0A00A84202D3681C01D082
:1043100032E085B3E08F0028E4D11BE0206881689B
:10432000C9070AD0C068A16B0880A06B801CA0637D
:10433000E08F401EE0870AE01BE0FFF775FAA0EB74
:104340000A00A84202D3681C01D015E09DB1E08F9D
:104350000028E3D152462946204601F0B8FF08B1B3
:104360002020606584F8519084F85080606D0028AA
:104370009FD001209DE7FFE784F8519084F850809A
:10438000032096E7704770472DE9F84F9846164688
:104390008A460446FFF748FA814694F851000128FE
:1043A0001ED1BAF1000F73D0002E71D094F85000D6
:1043B000012815D0012784F85070032084F851009B
:1043C00000256565C4F830A0A686E686A563A587A6
:1043D000E58765642564A068B0F5004F03D00CE064
:1043E0000220BDE8F88F2068016821F040010160DB
:1043F0002068016841F48041016020680168490635
:1044000003D4016841F040010160E068B0F5006F3D
:10441000606803D048B3012E27D047E008B1012ED1
:104420001FD1206B21680088C86006E02068816881
:10443000890709D5216B0988C160206B801C206326
:10444000E08E401EE0860CE0FFF7EEF9A0EB0901DC
:10445000414503D3B8F1FF3F03D035E0B8F1000F79
:1044600032D0E08E0028E1D123E0206B2168007873
:10447000087306E02068816889070AD5216B0978EE
:104480000173206B401C2063E08E401EE0860DE02F
:104490002BE0FFF7C9F9A0EB0901414503D3B8F1BF
:1044A000FF3F03D010E0B8F1000F0DD0E08E0028E0
:1044B000E0D14A464146204601F038FF08B12020AD
:1044C0006065A06830B109E084F8517084F85050FC
:1044D000032086E72068C1688068009084F85170E6
:1044E00004F8505F60680028F3D0012079E72DE9D7
:1044F000FF4F81B01D46934604464FF001090E9EC2
:10450000FFF792F9074694F851006168012806D038
:10451000B1F5827F3CD1A168C9BB042838D102988B
:10452000002871D0BBF1000FFBD0002DF9D094F81A
:10453000500001282CD04FF0010A84F850A094F8C4
:104540005100042802D0052084F851004FF00008E3
:10455000C4F85480C4F838B0E587A5870299216370
:10456000E586A586C4F84080C4F8448020680168C8
:10457000490603D4016841F040010160E068B0F5EC
:10458000006F606808D0F0B3012D49D081E0FFE7EB
:10459000022005B0BDE8F08F08B1012D39D1206BA4
:1045A00021680088C860206B801C2063E08E401E5C
:1045B000E0862EE02068816889070FD5E18E69B119
:1045C000B9F1010F0AD1216B0988C160206B801CF1
:1045D0002063E08E401EE0864FF00009206881686D
:1045E000C9070CD0E18F51B1C068A16B0880A06BE6
:1045F000801CA063E08F401EE0874FF00109FFF7A9
:1046000013F9C01B01E00BE067E0B04201D3701C5E
:1046100050D1E08E0028CDD1E08F0028CAD13EE0F5
:10462000206B216800780873206B401C2063E08EAB
:10463000401EE0862DE02068816889070FD5E18E55
:1046400069B1B9F1010F0AD1216B09780173206BAF
:10465000401C2063E08E401EE0864FF00009206879
:104660008168C9070CD0E18F51B1C068A16B087097
:10467000A06B401CA063E08F401EE0874FF0010953
:10468000FFF7D2F8C01BB04202D3701C01D011E07A
:1046900086B1E08E0028CED1E08F0028CBD13A46FB
:1046A0003146204601F042FE50B12020606584F87A
:1046B000508012E084F851A084F85080032068E70D
:1046C000A06818B92068C1688068009084F851A07B
:1046D00084F85080606D0028F1D0012059E7000077
:1046E00070B5044690F851006568012806D0B5F50C
:1046F000827F3AD1A568A5BB042836D191B38AB38D
:1047000083B394F8500001282FD0012084F8500082
:1047100094F85100042802D0052084F851000025A7
:1047200065652163A386E386A263A387E387256487
:10473000656494F85100042819D0E16C2748086496
:104740002748E16CC863E16C2648C864E06C0565E5
:10475000E38F2168A26B0C31E06CFEF7FDFE00BB1D
:104760000AE002E0FFE7012070BD022070BDE16CAD
:104770001D4808641D48E4E72068416841F00101D4
:104780004160A06C0564A06CC563A06CC564A06C9E
:104790000565E38E2268216B0C32A06CFEF7DCFE0F
:1047A00030B1606D40F01000606584F85050DAE779
:1047B00020680168490603D4016841F040010160A6
:1047C00084F850502068416841F020014160206821
:1047D000416841F002014160002070BD01620008A3
:1047E00075620008D5610008F76100080B620008D7
:1047F00070B5214C6268002A24D01168814221D111
:10480000207804F1100501281DD0032825D00528A3
:1048100018D11189506803F057F8A91C606803F09B
:10482000C1FB00252570606880F83350FEF7FCFF5F
:1048300061680864486C401C486481F8315001206C
:1048400081F8320070BD1189506803F03DF8A91C51
:10485000606803F0EDFA022008E0118AD06803F0E6
:1048600033F8691C606803F0FDFA0420207060686A
:10487000BDE8704002F0EABE1C000020704770479F
:10488000704710B5040003D094F83D0010B107E064
:10489000012010BD002084F83C00204600F01EF8E6
:1048A000022084F83D00211D206801F03DFE01201A
:1048B00084F8460084F83E0084F83F0084F8400005
:1048C00084F8410084F8420084F8430084F84400EE
:1048D00084F8450084F83D00002010BD70470000BA
:1048E00090F83D10012901D001207047022180F885
:1048F0003D100168CA6842F00102CA6000681149AF
:10490000884214D0B0F1804F11D00F4988420ED0A8
:104910000E4988420BD00E49884208D00D49884282
:1049200005D00D49884202D00C49884204D18168E3
:1049300001F00701062903D0016841F0010101607F
:1049400000207047000001400004004000080040C3
:10495000000C0040000401400040014000180040ED
:1049600070472DE9F04104460068C66805694FF0BC
:104970000007A90713D5B10711D5F91E0161012060
:104980002077206880698007204602D0FFF7E8FF83
:1049900004E000F07EF8204600F07CF827776807F6
:1049A00016D5700714D521686FF004000861022045
:1049B00020772068806910F4407F204602D0FFF7FE
:1049C000CFFF04E000F065F8204600F063F8277799
:1049D000280715D5300713D521686FF00800086146
:1049E000042020772068C0698007204602D0FFF7A6
:1049F000B7FF04E000F04DF8204600F04BF82777B1
:104A0000E80616D5F00614D521686FF0100008618D
:104A1000082020772068C06910F4407F204602D02B
:104A2000FFF79EFF04E000F034F8204600F032F873
:104A30002777E80708D0F00706D021686FF001005B
:104A40000861204600F028F8280608D5300606D56B
:104A500021686FF0800008612046FFF710FF6806AC
:104A600008D5700606D521686FF040000861204621
:104A700000F01CF8A8060AD5B00608D521686FF02A
:104A8000200008612046BDE8F041FFF7F9BEBDE80F
:104A9000F08170477047000000680349884201D1E7
:104AA000FEF7C8BE7047000000000140704738B5EF
:104AB000044690F84200202801D0022038BD51B1B0
:104AC0004AB10120206300206063204601F05AFFB4
:104AD000216B012901D0012038BD21680A6849688D
:104AE000009121680C3151E8002F42F0100241E89A
:104AF0000023002BF5D138BD70B50D460B49496830
:104B0000884204D02946BDE8704001F0FFBF002470
:104B1000074E04E0305D02F067FD641CA4B2AC42B5
:104B2000F8D3BDE8704004F04BB900001400002039
:104B3000B402002070B5044620680C3050E8001F15
:104B400021F4907140E80012002AF5D12068143059
:104B500050E8001F21F0010140E80012002AF5D1C1
:104B6000206B012809D120680C3050E8001F21F08B
:104B7000100140E80012002AF5D1206840694FF08A
:104B80000005400615D52068143050E8001F21F0BC
:104B9000400140E80012002AF5D1E06B48B10565FC
:104BA000E06BFEF742FB20B1E06BFEF799FB20289B
:104BB00006D0E585202084F842002563002070BDE2
:104BC00010206064032070BD084910B54A68904207
:104BD00003D0BDE8104001F089BF00220A70FFF742
:104BE000A9FFBDE8104004F0EBB80000140000205D
:104BF000F8B5016804460868CA684B6910F00F0FE1
:104C00004FF0000559D003F0010602F490773743C6
:104C100065D0C10705D0D10503D5616C41F0010114
:104C20006164410705D5D90703D0616C41F00201E9
:104C30006164810705D5D90703D0616C41F0040197
:104C40006164010707D502F02001314303D0616C94
:104C500041F008016164616C00293AD0800604D5F6
:104C6000900602D5204601F0A6FD20684069616CDF
:104C7000C0F38010090700D460B3204601F066FD40
:104C800020684069400621D52068143050E8001F94
:104C900021F0400140E80012002AF5D1E06BA8B1F4
:104CA00072490165E06BFEF709FB002811D0E06B4B
:104CB000016D01B0BDE8F040084783060FD59306AB
:104CC0000DD52046BDE8F84001F075BD2046FFF740
:104CD0007BFFF8BD2046FFF777FF6564F8BD266BC4
:104CE0002023012E7ED1C6067CD5D6067AD508684B
:104CF0004868009048694FF0020640064DD5E26BC7
:104D0000106840684FF480770004000C3AD0A18D01
:104D1000814237D9E085D069B8422DD020680C3067
:104D200050E8001F21F4807140E80012002AF5D1FC
:104D30002068143050E8001F21F0010140E8001203
:104D4000002AF5D12068143050E8001F21F04001FE
:104D500040E80012002AF5D184F84230256320682B
:104D60000C3050E8001F21F0100140E80012002A2A
:104D7000F5D1E06BFEF759FA6663A08DE18D401A1C
:104D800081B206E0A18D8142A8D1D069B842A5D1F7
:104D900066632046FFF7B0FEF8BDA08DE18D401A96
:104DA00081B2E08D0028F7D00029F5D020680C30C2
:104DB00050E8002F22F4907240E80027002FF5D130
:104DC0002068143050E8002F22F0010240E800274C
:104DD000002FF5D184F84230256320680C3050E86C
:104DE000002F00E006E022F0100240E80023002B34
:104DF000F3D1CDE705062BD5150629D594F841004A
:104E00002128C9D1A068B0F5805F01D12069B0B177
:104E1000206A411C2162216800784860E08C401EB5
:104E20000004000CE084B7D12068C16821F0800143
:104E3000C1602068C16841F04001C160F8BD206ACE
:104E40000088C0F308004860206A801C2062E5E703
:104E50004006F3D55006F1D5CA68204622F040023C
:104E6000CA6084F8413000F041F9F8BD05660008D9
:104E700070B5040004D094F84100002510B106E09C
:104E8000012070BD84F84050204600F023F8242013
:104E900084F841002068C16821F40051C1602046B7
:104EA00001F0EAFC2068016921F490410161206869
:104EB000416921F02A0141612068C16841F4005133
:104EC000C1606564202084F8410084F84200656375
:104ED000002070BD2DE9F04786B0044614216846D5
:104EE000FBF7BDFB58495848DFF858C12668103811
:104EF0000222032300254F054FF0400A4FF480693A
:104F000066454BD10E6846F400260E60096801F430
:104F100000210591016841F00401016000686946C3
:104F200000F00400059098028DE825000820CDE9E6
:104F300003304648FEF77AFB464E4548B846306097
:104F4000C6E90175C6E903597561B561F561356258
:104F50004F4630467562FEF795FA08B1FDF714FC2E
:104F6000E663B4633B4E3A4860363030C6E90357D7
:104F70007561B561F5613562756286E80105304697
:104F8000FEF780FA08B1FDF7FFFBA66300220521BA
:104F90003420B463FEF7F0FC34204EE0DFF8B8C0F4
:104FA00066454CD10E6846F400360E60096801F47F
:104FB00000310591016841F0010101600068694616
:104FC00000F0010005900C208DE825000720CDE9B8
:104FD00003302248FEF72AFB1E4E1D48C0364830DB
:104FE0003060C6E90175C6E903597561B561F561BF
:104FF0003562C84630467562FEF744FA08B1FDF7DF
:10500000C3FBE663B463164E1148C6E903587561E5
:10501000B561F56135626030756286E881043046BD
:10502000FEF730FA08B1FDF7AFFBA66300220521B9
:105030002620B463FEF7A0FC2620FEF790FC06B005
:10504000BDE8F087004C00404038024000080240B4
:10505000406002409C0600200044004000000240E6
:10506000BC0700207047704770B5044690F84100B7
:10507000202801D0022070BD01B3FAB12162A284C0
:10508000E28400206064212384F84130A56B144B36
:10509000EB63A56B134B2B64A56B134BEB64A36BFA
:1050A000186520681346A56B021D2846FEF754FAC2
:1050B00030B110206064202084F84100012070BDD0
:1050C00021686FF0400008602068143050E8001F2D
:1050D00041F0800140E80012002AF5D1002070BDA7
:1050E00001670008436700081366000803498A68DF
:1050F000904201D10020C8707047000034000020A9
:105100007047FEE77CB515491548FCF787FFD8B90D
:10511000144801F011F8B8B90620FEF70FFC17206B
:10512000FEF70CFC104C012525602026266010217E
:105130000E48CDE900010B460D4A0E490E48FCF71A
:1051400037FD2560266008B101207CBD0620FEF7F2
:1051500006FC1720FEF703FC00207CBDCC040020D9
:10516000A404002054060020143C0140000002402A
:1051700000080240F4040020FC00002000242DED73
:10518000048B84B026462546DFED738A7348F6EE1D
:10519000000AF0EE681AB0EE681AB0EE000A074690
:1051A00000F000FC9FED6E8AF6EE000AB0EE000AF9
:1051B000B0EE481A384600F019FCDFED6A9A38461E
:1051C000B0EE690A00F018FC9FED679A6348B0EEF4
:1051D000490A203800F072F96448F0EE681AB0EE1F
:1051E000681AF6EE000AB0EE000A074600F0DAFB95
:1051F000B0EE481AF6EE000AB0EE000A384600F0AB
:10520000F5FBB0EE690A384600F0F6FB5748B0EE01
:10521000490A203800F052F99FED551A5548F7EE2B
:10522000000AF0EE411AB2EE000A074600F0BAFB9F
:10523000B0EE481AF7EE000AB2EE000A384600F067
:10524000D5FBB3EE0E0A384600F0D6FB4948B0EE67
:10525000490A203800F0CAF8474FDFF82081DFF80C
:105260002091022300226946386802F05BFC68BB8B
:1052700000231A466946386802F054FC0028F7D02B
:1052800003980124C00705D00021D8F8000002F0DF
:10529000DBFC60B100260398800705D50021D9F812
:1052A000000002F0D1FC20B1002526B108E0012663
:1052B000F1E70125F9E70021D8F8000002F0C4FC6D
:1052C00025B90021D9F8000002F0BEFCFEF7ACFAC7
:1052D000FCF76AFEECB1E6B1FEF7A6FA0299401AB5
:1052E000642816D81D482038007F90B11F48203808
:1052F000007F70B119489DED000A203800F0D8F801
:105300009DED000A1948B1EE400A203800F0D0F8AF
:105310000CE01248B0EE480A203800F0C9F81348F3
:10532000B0EE480A203800F0C3F86CB165B1FEF762
:105330007BFA0299401A642806D80E482038007F6C
:1053400010B19DED010A01E0B0EE480A094820388D
:1053500000F046F885E70000000080466401002068
:105360000000000000007A44CDCC4C3EA801002093
:1053700000401C46340200205C0000206000002039
:1053800064000020002802D01030FDF7E4B9704717
:1053900070B50D462DED028BB0EE608AF0EE408ABE
:1053A000040017D04421FBF75AF92570B7EE000A24
:1053B00084ED030AF0EE480AB0EE680ABDEC028BF9
:1053C00004F120009FED051ABDE87040F0EE411A8F
:1053D00000F0E8BABDEC028B70BD000000401C4636
:1053E000002801D080ED010A7047000000280FD08E
:1053F00010EE101AB1F17E5F01DDB7EE000AB5EED6
:10540000C00AF1EE10FA01D29FED020A80ED030A04
:105410007047000000000000D0B1017FC1B1B0F9B9
:105420001210D0ED031A00EE901AB8EEE01AD0ED8B
:10543000020A31EE601A41EE810AB0EE401AC0ED68
:10544000020AD0ED011A2030B0EE610A00F02ABA4B
:1054500000207047002802D01030FDF77CB970475B
:1054600070B50D462DED028BB0EE608AF0EE408AED
:10547000040017D04421FBF7F2F82570B7EE000ABC
:1054800084ED030AF0EE480AB0EE680ABDEC028B28
:1054900004F120009FED051ABDE87040F0EE411ABE
:1054A00000F080BABDEC028B70BD000000008046A9
:1054B000002801D080ED010A7047000000280FD0BD
:1054C00010EE101AB1F17E5F01DDB7EE000AB5EE05
:1054D000C00AF1EE10FA01D29FED020A80ED030A34
:1054E0007047000000000000D0B1017FC1B1B0F9E9
:1054F0001210D0ED031A00EE901AB8EEE01AD0EDBB
:10550000020A31EE601A41EE810AB0EE401AC0ED97
:10551000020AD0ED011A2030B0EE610A00F0C2B9E3
:1055200000207047104810B50E490160032141600A
:1055300000214FF410228160C0E903124FF40012E1
:1055400042610176012242768176C2760177417707
:10555000FDF7A5FC002803D0BDE81040FDF714B905
:1055600010BD000000640040A4040020104810B5E5
:105570000E4901600321416000214FF41022816037
:10558000C0E903124FF40012426101760122427613
:105590008176C27601774177FDF781FC002803D040
:1055A000BDE81040FDF7F0B810BD000000680040F5
:1055B000CC040020214808B5016841F400110160C5
:1055C000016801F400110091016841F4800101605B
:1055D0000068002200F48000009005210D20FEF7F5
:1055E000CBF90D20FEF7BBF9002205210F20FEF7B5
:1055F000C3F90F20FEF7B3F9002205211020FEF7B2
:10560000BBF91020FEF7ABF9002205211120FEF7AF
:10561000B3F91120FEF7A3F9002205213820FEF787
:10562000ABF93820FEF79BF9002205213B20FEF75D
:10563000A3F9BDE808403B20FEF791B9303802409D
:1056400010B5234A0021012002F02CFB214C204AF6
:10565000002120621032012002F024FB1C4A60620B
:10566000483A1C21082002F08FFA194A082160618B
:10567000303A084602F088FA154AA061183A10211B
:10568000042002F081FA124AE061FC3A002112483B
:1056900002F080FB0E4A2060D83A00210F4802F049
:1056A00079FB0B4A6060B43A00210D4802F072FBAE
:1056B000074AA060903A00210A4802F06BFB044AB6
:1056C000E0606C3A0021084802F064FB206110BDE4
:1056D00074AC0008400000205564000869250008EB
:1056E000195A0008AD6B00087D5100082DE9F04300
:1056F00087B014216846FAF7B2FF344800240168E5
:1057000041F080010160016801F0800105910168AC
:1057100041F001010160016801F00101059101689A
:1057200041F002010160016801F002010591016888
:1057300041F0040101600068254F00F0040005906D
:10574000012210213846FEF769F8DFF8889001221F
:1057500010214846FEF762F810264FF00308012595
:10576000CDF80C800096CDE9015469463846FDF726
:105770005DFF4FF488170095CDE90174694616481E
:10578000FDF754FFCDF80C800096CDE90154694631
:105790004846FDF74BFF2020CDE9000769460294FB
:1057A0004846FDF743FF002205210620FEF7E4F8F6
:1057B0000620FEF7D4F8002205211720FEF7DCF8BA
:1057C0001720FEF7CCF807B0BDE8F0833038024070
:1057D000000002400008024000040240104810B5DA
:1057E0000E4901604FF48271416000210222816004
:1057F000C0E9031201224261520282611822C0E90B
:105800000721416281620A21C162FEF749FC00283A
:1058100003D0BDE81040FCF7B7BF10BD0030014019
:10582000F40400200C4810B50A4901604FF4E1313E
:105830004160002181600C22C160C0E904128161D5
:10584000C161FFF715FB002803D0BDE81040FCF74D
:105850009BBF10BD004C00400C0600200E4810B548
:105860000C4901600D4941604FF48051816049004D
:10587000C160C91001610C21416100218161C161D8
:10588000FFF7F6FA002803D0BDE81040FCF77CBF14
:1058900010BD00000044004054060020A086010016
:1058A000FEE7000010B5DFED3E1A04002DED028B7F
:1058B00004D0B5EEC01AF1EE10FA03D80020BDEC0A
:1058C000028B10BD30EE608A94F8200030B194ED68
:1058D000070A30EE600AC0EE011A02E0012084F8E7
:1058E0002000C4ED070A94ED000A60EE088A94EDEA
:1058F000020A41EE808A94ED050AB5EEC00AF1EE87
:1059000010FA0BD9B4EEC80AF1EE10FA3ADBB1EE98
:10591000400AB4EEC80AF1EE10FA33D8D4ED010A09
:1059200094ED030A60EE880A00EE810AD4ED040AC1
:1059300001F016FE78EE800A94ED061AB4EEE01A35
:10594000F1EE10FA06DDF1EE411AF4EEE01AF1EE96
:1059500010FA15D3B4EEE01AF1EE10FA04D8B5EE51
:10596000C08AF1EE10FA0BD3B1EE411AB4EEE01A90
:10597000F1EE10FA06DBB5EEC08AF1EE10FA01DDA9
:1059800084ED030A94ED030AD4ED060A30EE280AEA
:1059900001F0E6FDBDEEC00A10EE100A00B28EE77F
:1059A00000000000002812D080EC020A00219FEDC8
:1059B000080A80ED020A80ED030A80ED041A80EDEA
:1059C000050AC0ED061A80ED070A80F8201070471E
:1059D00000000000002806D000219FED030A80EDA2
:1059E000030A80F82010704700000000002801D052
:1059F00080EC030A70470000002808D0B5EEC00A0A
:105A0000F1EE10FA01DC9FED020A80ED050A704705
:105A100000000000FEE700002DED108BC6B0242230
:105A200008A8FE49FAF7E1FDFC49242224311CA80C
:105A3000FAF7DBFD0020169018901B909FEDF88A76
:105A40001A908DED058AB0EE480A8DED378A8DEDFE
:105A5000408AF0EE489AB0EE48BAF0EE40BAB0EEA6
:105A600048AAF0EE488AB0EE489AB0EE48CAF0EE86
:105A700048CAF0EE48AA259080469FEDEAEA3090A9
:105A8000149005463190814682463F903E903421E5
:105A9000E548FAF7E4FD9FEDE51AF2EE000AF0EEB4
:105AA000411A9FEDE3DAE3483C90B0EE4D0AFFF770
:105AB00079FFB0EE481AF2EE000AB0EE4D0A3C98BB
:105AC000FFF794FFB0EE4D0A3C98FFF795FFDFED2E
:105AD000DADAD848B0EE6D0A2438FCF78BFEDFED39
