:020000040800F2
:10000000405900204503000825610008FF530008FF
:10001000495F000889200008917B0008000000006B
:100020000000000000000000000000008502000841
:10003000ED29000800000000E1020008BD7500087D
:100040005F0300085F0300085F0300085F03000808
:100050005F0300085F030008152A00085F0300081B
:100060005F0300085F0300085F0300085F030008E8
:100070005F030008AD2700085F030008B9270008E8
:10008000C5270008D12700085F0300085F030008A8
:100090008D2000085F030008992000081B2A000833
:1000A0005F0300087D7600085F0300085F03000817
:1000B0005F0300085F0300085F0300085F03000898
:1000C0005F0300085F0300085F0300085F03000888
:1000D0005F0300085F030008857B00085F030008DA
:1000E0005F0300085F0300085F0300085F03000868
:1000F0005F0300085F0300085F0300085F03000858
:100100005F0300085F0300085F0300085F03000847
:10011000597700085F0300085F0300085F030008C9
:10012000DD2700085F0300085F030008E9270008D7
:100130005F03000800000000000000005F030008EB
:10014000A52000085F030008B12000085F03000835
:100150005F0300085F0300085F0300085F030008F7
:100160005F0300085F0300085F0300085F030008E7
:100170005F0300085F0300080000000000000000AB
:100180005F0300085F03000800F002F800F06AF85F
:100190000AA090E8000C82448344AAF10107DA45E2
:1001A00001D100F05FF8AFF2090EBAE80F0013F0CA
:1001B000010F18BFFB1A43F00103184744C50000A4
:1001C00064C500000A444FF0000C10F8013B13F026
:1001D000070408BF10F8014B1D1108BF10F8015BA0
:1001E000641E05D010F8016B641E01F8016BF9D193
:1001F00013F0080F1EBF10F8014BAD1C0C1B09D1EA
:100200006D1E58BF01F801CBFAD505E014F8016B5B
:1002100001F8016B6D1EF9D59142D6D370470000ED
:100220000023002400250026103A28BF78C1FBD8FF
:10023000520728BF30C148BF0B6070471FB50BF095
:1002400095FF00F005FB0400002000210BF070FD7D
:10025000401C6060002000210BF080FDE0601FBDAD
:1002600010B510BD00F058FB1146FFF7E7FF08F08E
:10027000DBFC00F09FFB03B4FFF7F2FF03BC00F0D0
:100280005FFE00002C4B19680868B0E8F04F80F35F
:100290000988BFF36F8F4FF0000080F3118870471B
:1002A0000000000008480068006880F308884FF0EC
:1002B000000080F3148862B661B6BFF34F8FBFF3BE
:1002C0006F8F00DF00BF00BF08ED00E0DFF80C001B
:1002D000016841F470010160704700BF88ED00E0E3
:1002E000EFF30980BFF36F8F134B1A681EF0100FE6
:1002F00008BF20ED108A20E9F04F106009B44FF0DC
:10030000500080F31188BFF34F8FBFF36F8F0AF057
:1003100043FD4FF0000080F3118809BC196808689C
:10032000B0E8F04F1EF0100F08BFB0EC108A80F359
:100330000988BFF36F8F7047C4000020EFF305807A
:10034000704700000948804709480047FEE7FEE77C
:10035000FEE7FEE7FEE7FEE7FEE7FEE7FEE7FEE775
:1003600004480549054A064B704700006D760008B1
:1003700089010008405300204059002040550020CA
:100380004055002053EA020C00F069802DE9F04B43
:100390004FF00006002B1FBFB3FA83F503FA05F4F4
:1003A00024FA05F65E4012BF1643B2FA82F502FA4D
:1003B00005F4C5F120051EBF22FA05FC44EA0C0431
:1003C000203556EA044C4FEA144418BF641C4FF021
:1003D00000084FF00009904271EB030C39D300295B
:1003E00019BFB1FA81F701FA07F6B0FA80F700FAFF
:1003F00007F6C7F120071EBF20FA07FC46EA0C06E5
:100400002037B6FBF4FCA7EB0507103F07F01F0BE6
:10041000CBF120060CFA0BFB2CFA06F644BFB346D0
:100420000026202FA4BF5E464FF0000B5BEA060CAF
:1004300008BF4FF0010B19EB0B09ABFB027C48EB3B
:100440000608C01B06FB02CC0BFB03CC71EB0C01B6
:10045000C1E70B46024641464846BDE8F08B13B55E
:100460004FF000004FF00001AFF30080BDE81C40EA
:1004700070472DE9F04791460F4680460446002616
:1004800014F8015B2DB100F049F90068405DC00728
:10049000F6D12B2D02D02D2D18D0641E4A46394698
:1004A000204600F052F927B13968A14201D1C7F8BE
:1004B00000804FF0020471050BD54042002803DD97
:1004C00000F034F90460A007BDE8F08746F48066C8
:1004D000E4E70028F8DA00F029F904606FF0004042
:1004E000F2E7401ECAB210F8011F8A4202D000296A
:1004F000F9D10020704710B5431C02E010F8011B31
:1005000071B18107FAD14FF0013202C88C1A8C43C5
:1005100014EAC211F9D0C01A0A0603D0C01E10BDD9
:10052000C01A10BD0A0401D0801E10BD0902FCD003
:10053000401E10BD40EA010370B59B072ED14FF05D
:100540000136042A2AD308C810C99D1B9D43121FD7
:1005500015EAC61517D0D8B2E1B2401A50EA0561C3
:1005600010D198B2A1B2401A50EA05410AD123F045
:100570007F4024F07F41401A50EA052102D1180E35
:10058000A0EB146070BDA342DBD018BA21BA884238
:1005900001D9012070BD4FF0FF3070BD0AB90020B5
:1005A00070BD10F8013B11F8014B63B1A3420AD1B1
:1005B000521E08D010F8013B11F8014B1BB1A342A9
:1005C00001D1521EEDD1181B70BD032A40F23080BC
:1005D00010F0030C00F0158011F8013BBCF1020F84
:1005E000624498BF11F801CB00F8013B38BF11F805
:1005F000013BA2F1040298BF00F801CB38BF00F81C
:10060000013B11F0030300F02580083AC0F0088098
:1006100051F8043B083A51F804CBA0E80810F5E77C
:10062000121D5CBF51F8043B40F8043BAFF300805F
:10063000D20724BF11F8013B11F801CB48BF11F8D4
:10064000012B24BF00F8013B00F801CB48BF00F8A4
:10065000012B704710B5203AC0F00B80B1E818505C
:10066000203AA0E81850B1E81850A0E81850BFF49C
:10067000F5AF5FEA027C24BFB1E81850A0E818503B
:1006800044BF18C918C0BDE810405FEA827C24BF8F
:1006900051F8043B40F8043B08BF7047D20728BF1D
:1006A00031F8023B48BF11F8012B28BF20F8023B6C
:1006B00048BF00F8012B704702F0FF0343EA032212
:1006C00042EA024200F09FB84FF0000200B5134624
:1006D00094469646203922BFA0E80C50A0E80C5062
:1006E000B1F12001BFF4F7AF090728BFA0E80C5013
:1006F00048BF0CC05DF804EB890028BF40F8042B0C
:1007000008BF704748BF20F8022B11F0804F18BF78
:1007100000F8012B704770477047704710B500F024
:1007200097F8001D10BD00BF09B6000000487047D3
:10073000E052002010B5FFF7F9FF006810BD10B5BA
:100740000446FFF7F3FF046010BD2DE9F05F824619
:1007500015468B4600270AF10104B9460078302877
:1007600001D09DB113E014F8010B0127782803D0C4
:10077000582801D045B10AE00DB1102D07D100274E
:1007800014F8010B102502E0082500E00A250026D8
:10079000B0460EE005FB080005FB06F101271FFA35
:1007A00080F801EB1046B6F5803F00D3B94614F847
:1007B000010B294600F050F80028EBDABBF1000FDE
:1007C00005D00FB1641E00E05446CBF80040B9F1EB
:1007D000000F06D0FFF7AAFF02210160C81EBDE886
:1007E000F09F48EA0640FAE77CB5054600236846D4
:1007F000CDE9003300F05CF86946284607F092FF27
:100800007CBD4FF000020429C0F0128010F0030CF0
:100810003FF45CAFCCF1040CBCF1020F18BF00F840
:10082000012BA8BF20F8022BA1EB0C01FFF74EBF54
:100830005FEAC17C24BF00F8012B00F8012B48BF00
:1008400000F8012B7047000000487047E05200207C
:1008500000487047005300203A2800D2303820F07A
:100860002002412A01D3A2F13700884201D34FF080
:10087000FF3070470FB4002300B589B00CA9009178
:100880000B99CB60214B7B440693214B7B44079310
:1008900004236FF00042CDE901321E4A7A446B46D0
:1008A0000892024600200BF0CEFC09B05DF814FB64
:1008B00070B506464FF0FF3015460C46324686B0FE
:1008C0000091CDE9010169460020049004A8FFF7DA
:1008D000D1FF02460498211825B108B1084600E06E
:1008E00020462860049800280DD0002A02DD0098D8
:1008F000884208D03246081B69460094CDE90104BD
:1009000004A8FFF7B7FF06B070BD0000EB000000C1
:1009100003010000C30000007546FFF795FFAE46D7
:1009200005006946534620F00700854618B020B5FB
:10093000FFF716FDBDE820404FF000064FF000071E
:100940004FF000084FF0000B21F00701AC46ACE877
:10095000C009ACE8C009ACE8C009ACE8C0098D46E4
:10096000704710B50446FFF7D9FE0068005D00F03F
:10097000010010BD426842B1016811F8013B23B18A
:10098000521EC0E90012184670470121C160881E3E
:10099000704742685AB1C368016843B983688B42A3
:1009A00005D0491E521CC0E90012002070474FF0CC
:1009B000FF30704710B50446AFF300802046BDE815
:1009C0001040FFF758BC00004FF0013C50F8042BDA
:1009D00051F8043B9A4221D1A2EB0C03934313EA52
:1009E000CC1317D150F8042B51F8043B9A4215D17F
:1009F000A2EB0C03934313EACC130BD150F8042B56
:100A000051F8043B9A4209D1A2EB0C03934313EA39
:100A1000CC13DBD04FF00000704700BFD01A01BAF2
:100A2000B1FA81F101F0180122FA01F0CB40C1F1D5
:100A30002001DBB2C0B2C01A2CFA01F3D11A9143E3
:100A400011EAC311E6D170472DE9FF4F06468BB07E
:100A50000878FF2806D0491C2D2805D000244FF027
:100A6000000908E000200CE00124F8E709EB890305
:100A7000491C00EB43090878FF28F7D114B1C9F1EC
:100A800000008146107800252C46AA4629462D28CC
:100A900001D02B2804D1521C2D2813D000208246CF
:100AA0008B461078FF280FD04FF0000C0A21521C03
:100AB000A5FB017804FB018105FB0C11C5194BEB6B
:100AC0000104EEE70120EAE7002108464FF00000AC
:100AD000BAF1000F02D000EB80004008C0F381574C
:100AE000012F01DD4FF0FF370E9955EA040009EBA5
:100AF00001080BD04FF0020918F5FA7F16DA4FEA19
:100B0000CA70002F706008DD012007E04FEACA704C
:100B1000C6E900B00FB0BDE8F08F00203060FFF7ED
:100B200005FEC0F800901821084616E0B8F5FA7FD7
:100B300018DD002F02DAF748784401E0F6487844DF
:100B4000D0E90010C6E9001040EACA707060FFF7F3
:100B5000EDFDC0F80090142108460FB0BDE8F04F3D
:100B60000BF00EBB002108464FF00000B8F1000169
:100B7000099002DAC7F1000200E03A4601DAC8F152
:100B8000000106A800F0E2F906AB93E8070003AB0A
:100B900083E8070044F23E005BEA040100905846F7
:100BA00004D144F21E012C465D460091210C09043B
:100BB000014306D10099240444EA15442D04103958
:100BC000009104F07F41014306D10099240244EAD8
:100BD00015642D020839009104F07041014306D1DB
:100BE0000099240144EA15742D01091F009104F0B5
:100BF0004041014306D10099A40044EA9574AD0038
:100C0000891E009104F00041084304D100986D1939
:100C10006441401E00904FF001033A466846B8F127
:100C2000000FCDE9014503A902DD00F0CCFE01E093
:100C300000F09FFEBAF1000F04460D4601D084F08B
:100C40000044002108464FF00000099940F2FF7768
:100C5000484010F00C0F07D124F00040284303D087
:100C6000C4F30A50B84212D1FFF760FDC0F80090FB
:100C7000C4F30A50B8420AD1A8487844D0E9001019
:100C8000C6E9001004F000410843706042E7C6E97D
:100C900000543FE72DE9FF4F1F464FF0000A4FF089
:100CA000FF38454691B0D7E90146CDF83CA0FFF7A3
:100CB000CFFDC0680168405C1090B96912986D1C46
:100CC0008847396A814688470028F6D1B9F1FF3F45
:100CD0000AD0002E24F4D06411DDB9F12B0F08D016
:100CE000B9F12D0F0BD102E0404615B013E744F4E3
:100CF0008064B96912986D1C8847761E814660052C
:100D000004A901D52D2000E02B20002E01F1010BBC
:100D10000DF130088DF810003FDDB9F1690F08D0F2
:100D2000B9F1490F05D0B9F16E0F02D0B9F14E0FEC
:100D30001CD13B4601A8009580E85002DDE9121263
:100D40006FF002000BF083FAC11CCED10EE0B9693E
:100D500012986D1C884781461398761E44F40074DF
:100D600005600F98401C002E0F9016DDB9F1300F72
:100D7000EDD0B9F1780F02D0B9F1580F0DD10F981D
:100D800001280AD13B46CDE90054DDE91212001FCB
:100D900002960BF05AFAC11CA7D1109989453ED191
:100DA00044F0800406E01399681CAAF1010A44F497
:100DB00000740860B9696D1C1298761E8847302847
:100DC0008146F0D02BE01099894505D1200603D447
:100DD000761E44F0800418E0484607F061FD08B331
:100DE000761E0DF123018B4544F4007408D2A9F15D
:100DF00030000BF8010B200607D5AAF1010003E033
:100E0000200602D40AF101008246A00502D51399FA
:100E1000681C0860B96912986D1C88478146002ECD
:100E2000D1DC53E0002E51DDB9F1650F02D0B9F1EC
:100E3000450F4BD1A00549D5B9696D1C1298761E96
:100E400024F440748847002E81460CDD2B2804D002
:100E5000B9F12D0F07D144F48074B96912986D1C53
:100E60008847761E8146E00501D52D2100E02B2123
:100E700008F8011BCDF8008021E0761E0DF1390144
:100E8000884544F400740CD2A9F1300010F0FF0042
:100E900088F8000002D10099884509D908F10108B5
:100EA00006E0E00501D51E4801E042F20F708246DF
:100EB000B96912986D1C8847814613980560002E09
:100EC00004DD484607F0ECFC0028D6D1F9691298F9
:100ED0008847FF2053468BF8000088F80000002068
:100EE0000A900B9004AA0CA90AA8FFF7ADFDA00573
:100EF00002D46FF00100F8E614F0240F12D0E007DE
:100F00001CD13868DDE90A12031D3B600068C0E9A6
:100F1000001213E0ECBB0000DEBB0000A2BA000030
:100F2000F1D8FFFF0AA9684607F0FCFBE00705D1EE
:100F30003868009A011D3960006802602846D4E6CE
:100F400001491820ABBEFEE7260002002DE9F0475C
:100F5000814616468AB0354878440DC88DE80D00A4
:100F600032487844801C03AC0DC884E80D0041F67B
:100F70009B300844372190FBF1F290FBF1F5A5F18D
:100F8000800501FB12041B3C02D56442012000E0F5
:100F90000020DFF898A080460027FA44AAF1BE0A94
:100FA0000EE0E0070AD03246684607EB470101230E
:100FB0000AEB810100F0F2FC8DE8070064107F1C51
:100FC000002CEED1194F7F44AE3F19E0E80715D051
:100FD00007EB04100DF1180A90E80E008AE80E00E5
:100FE000C068F04201D1981908903246012306A941
:100FF00003A800F0D3FC03AB83E807006D10641C6A
:10100000002DE3D14FF0010332466946B8F1000FDD
:1010100003A802D000F098FC01E000F0BFFCC9E991
:101020000001C9F808200AB0BDE8F0870CB600003E
:10103000704700002DE9FF4F1F464FF03C0987B075
:101040004FF00042DDE9141001F10108DDF858A06D
:1010500002EA40500390002005908346054604466E
:101060000490B969461E08988847AAF1010A0290BF
:10107000BAF1000F3BDD02982E2815D01021FFF7A2
:10108000EBFB00282EDB4FF0010B0599014317D035
:10109000B9F1000F0BDB4A46C11700F0F5F9054323
:1010A0000C43A9F1040905E0012004900BE008B10C
:1010B00045F0010501200590049820B9361D02E095
:1010C000049800B1361FB969089808F101088847EB
:1010D000BBF1000FAAF1010A0290C9D00999C1F829
:1010E0000080C5E70298702808D0502806D0F9691A
:1010F00008988847BBF1000F14D04FE00020029001
:101100000120BBF1000F049009D0B969089808F1DB
:1011100001088847AAF10109B9F1000F07DCF96954
:10112000089888476FF001000BB0BDE8F08F2B28BE
:1011300004D02D280CD14FF0FF300490B9690898E5
:1011400008F101088847A9F10109B9F1000FE6DDAE
:10115000411CE4D00A21FFF77FFB0028DFDB029966
:1011600008F1010801EB810100EB41000290B9692F
:10117000089888470A21FFF76FFB099AA9F101092E
:10118000B9F1000FC2F8008001DD0028E7DAF96943
:10119000089888470499029800FB016655EA040004
:1011A00004D004F04041090002D006E0039898E022
:1011B000A40044EA9574AD00B61E04F00041080096
:1011C00002D16D196441761E159810F0240F03D0DA
:1011D0004FF00B095C4803E04FF028096FF07D00E9
:1011E0008246564507DAAAEB06018944B9F1410F58
:1011F00001DD4FF0410901200021A9F1010200F0B9
:1012000043F9024628400B462140084301D0012102
:1012100000E00021501E029143F1FF31284021409F
:10122000084301D0012000E000200299834651EAE2
:101230000B014FD0002108464FF00000039900F445
:10124000400039B100EB80004FF4400100EBD0705A
:1012500001EA60008015012802DD4FF0FF3000E058
:1012600013D0401C36D0029860B3BBF1000F0CD1F4
:101270004A460120002100F007F928402140084398
:1012800001D0012000E00020E0B101204A46002109
:1012900000F0FAF8034640190A4661412D1A8C41C4
:1012A00011D3B9F1400F09DD159810F0240F02D0C9
:1012B000AAF1340603E0AAF1170600E0761C002527
:1012C0004FF0004406E05B1E42F1FF3220EA0305C6
:1012D00021EA0204CAF10100B04206DA1B49039870
:1012E00008430190002000900EE0039AC4F3D3213C
:1012F000E80A0A43164940EA44500A433146CDE918
:101300000002684607F0C2FA159810F0240F0BD0BF
:101310001598C00715D13868DDE90012031D3B6040
:101320000068C0E900120CE002A8694607F0FAF96B
:101330001598C00705D13868029A011D3960006808
:1013400002604046F0E6000002FCFFFF0000F07F74
:101350000000F03F2DE9FF4F92461D4685B04FF04B
:101360000041DDE9124BDDE914727F1E01EA4B50AA
:10137000414940F0FF4940EA0108002122F02000E5
:101380004928049102D04E2828D04CE03BA00126E9
:1013900007C88DE80700A9690698641C88477F1E66
:1013A000014606D41DF8060018B121F02001814243
:1013B0000BD0E96906988847032E34D0082E32D026
:1013C0006FF0010009B0BDE8F08F761C032E01D04C
:1013D000082EE0D1601CCAF80000DCE7A969069875
:1013E000641C88477F1E2AD420F02000412826D183
:1013F000A9690698641C88477F1E20D420F020002D
:101400004E281CD1A9690698641C88477F1E48F4A1
:10141000002849F48009CAF8004001D4282806D0E1
:10142000E969069888475FEACB7012D022E0A96983
:101430000698641C88477F1E01D4002803DAE969F6
:1014400006988847BCE72928F1D1641CCAF80040F7
:10145000E9E71BF0240F07D028680499031D2B60CF
:101460000068C0E9001805E02868021D2A600068CD
:10147000C0F800902046A5E70000F07F494E46499D
:101480004E49545900000000B2F120030AD5C2F1C0
:10149000200301FA02F120FA03F300FA02F041EA14
:1014A0000301704700FA03F14FF00000704720F08D
:1014B0007F4C80EA030023F07F47ACEB070303F582
:1014C0007C5300F0004003F1FF032DE980494FEA0F
:1014D000154B09B44FEA144325EA0B4E24EA03489E
:1014E0000FF2042606EB132749083E785FEA320222
:1014F00003FB0667C7F5000707FB06F64FEA5437FC
:101500004FEAD64606F1020607FB066CCCF1005CFA
:101510004FEA1C472CEA074C07FB06F40CFB06F5C8
:1015200004EB15464FEA961634BF00204FF00040FA
:101530004FEAD13706FB07FC4FEA1C4C0CFB0BF7BC
:10154000D21B03FB0CF761EB07010CFB0EF7B0EBB2
:10155000074072EB17420CFB08F734BFA2EB0742BF
:10156000B2EB074261EB17414FEA0C444FEA910797
:1015700006FB07FC4FEA1C4C0CFB0BF7B0EBC7401B
:1015800072EB573203FB0CF734BFA2EBC742B2EB4E
:10159000C74261EB57310CFB0EF7B0EBC70072EBA3
:1015A00057720CFB08F734BFA2EBC702B2EBC702BD
:1015B00061EB5771039F4FEA816141EA921104EB9D
:1015C000CC044FEAD1374FEA826206FB07FC42EABD
:1015D00090124FEA80604FEA1C4C0CFB0BF7D21BB9
:1015E00003FB0CF761EB07010CFB0EF7B0EB0740B8
:1015F00072EB17420CFB08F734BFA2EB0742B2EBC9
:10160000074261EB17414FEA8C554FEA910704EB13
:101610009C2406FB07FC4FEA1C4C0CFB0BF7B0EBC1
:10162000C74072EB573203FB0CF734BFA2EBC74243
:10163000B2EBC74261EB57310CFB0EF7B0EBC700C2
:1016400072EB57720CFB08F734BFA2EBC702B2EB88
:10165000C70261EB577115EB4C254FEA816141EAF6
:1016600092114FEA82624FEAD13742EA901206FBAA
:1016700007FC44F100044FEA80604FEA1C4C0CFB6D
:101680000BF7D21B03FB0CF761EB07010CFB0EF70A
:10169000B0EB074072EB17420CFB08F734BFA2EB2C
:1016A0000742B2EB074261EB174115EB1C154FEAFD
:1016B000813141EA92414FEA823242EA90424FEA56
:1016C00080304FEA0C7644F1000448EA03434EEAC6
:1016D0000B484FF0000EB2EB080C71EB030724BF70
:1016E000624639464EEB0E0E4FF0000B0018524189
:1016F00049414BEB0B0BB2EB080C71EB03077BF191
:10170000000B24BF624639464EEB0E0E4FF0000B25
:101710000018524149414BEB0B0BB2EB080C71EB3B
:1017200003077BF1000B24BF624639464EEB0E0ED9
:1017300051EA020718BF46F0010616EB0E7655F186
:10174000000254F1000103D5BDE88901BDE800881D
:10175000BDE88901BDE80048B619524141EB0101DD
:10176000A3F10103704780807F7E7D7C7B7A79784E
:10177000777676757473727171706F6E6E6D6C6C56
:101780006B6A6A69686867666665646463636261F8
:101790006160605F5F5E5E5D5D5C5C5B5B5A5A5979
:1017A00059585857575656555555545453535252E5
:1017B0005251515050504F4F4F4E4E4D4D4D4C4C3D
:1017C0004C4B4B4B4A4A4A49494948484847474786
:1017D00047464646454545444444444343434342C3
:1017E000424242414141000046EA0646A3F5705399
:1017F0004FEA164646EA42564FEAD22242EA4152A0
:1018000010B54FEAD121A3F1010300F02FF820F029
:10181000004000F1020C00F0004701EB00501146BF
:10182000BCF5006F40EA070000D210BDBAF1000F0E
:101830000AD01CB503B44FF004004FF004014FF080
:1018400000000FBCBDE810404FF00001BBF1010FDC
:10185000B9BF04484FF0FF310348002140EA0700B8
:1018600010BD00BFFFFFEF7F0000F07F002B9C4604
:1018700030D477002BD01CB54FEA370703B44FF0B4
:1018800010004FF01001BAF1000F06D0BCF1000FAC
:10189000DCBF40F0080040F008014FF000000FBC32
:1018A000BDE810400BF1010BBBF1010F08BF5FEA6F
:1018B000170722BF12F1010211F101014FF000419F
:1018C00043F1000300F0004043EA00007047F9D301
:1018D0005708D0E746EA064613F1400F4FEA16468E
:1018E0001FDD13F1200FDFBF16430A46002120330E
:1018F0005B42BED0C3F1200746EA064602FA07F76C
:101900004FEA164646EA0706C3F1200722FA03F219
:1019100001FA07F721FA03F14FF0000342EA070248
:10192000A7E746EA020646EA06464FEA164646EAB0
:101930000106BCBF46EA0646360C4FF000034FF0E6
:1019400000024FF0000194E72DE9804C9A4693463F
:1019500070B491E8380007C831EA400C48BF34EA57
:10196000430C03D5FFF7A3FDFFF780FFF0BCBDE8F4
:10197000008C2DE9804C9A46934670B491E838006B
:1019800007C831EA400C48BF34EA430C03D5FFF7DF
:101990008EFDFFF729FFF0BCBDE8008C2DE9804CDF
:1019A0009A46934670B491E8380007C810F0804F0B
:1019B00008BF13F0804F03D100F01AF8FFF756FF6D
:1019C000F0BCBDE8008C2DE9804C9A46934670B47B
:1019D00091E8380007C810F0804F08BF13F0804F1F
:1019E00003D100F005F8FFF7FFFEF0BCBDE8008C66
:1019F00020F07F4780EA030023F07F4C07EB0C03C5
:101A0000A3F57C5300F00040A3F1FE0392F0000F19
:101A100000F0B38095F0000F00F077802DE90149C8
:101A20004FEA11404FEA144621EA004800FB06FC49
:101A300024EA064708FB06F607FB08F800FB07F751
:101A400018EB06484CEB164C4FEA124B18EB0748C4
:101A50004FEA15464CEB174022EA0B4E0BFB06FCF7
:101A600025EA06470EFB06F607FB0EFE0BFB07F703
:101A70001EEB064E4CEB164C4FF000061EEB074ECD
:101A80004CEB174B18EB0B0840F1000018EB0E0B5A
:101A900058EB000840F100008F1A4FF000013CBFE6
:101AA000C943661B14BFB5EB040C00213CBFC943FE
:101AB000F61B4FEA17444EEA8E0E27EA04454FEA1A
:101AC0001C4704FB07622CEA074C05FB07F70CFBDD
:101AD00005F604FB0CFC16EB074642EB174216EB2F
:101AE0000C4642EB1C421BEB060658EB020241413E
:101AF00046EA9E0601D5BDE80189B619524141EB7F
:101B00000101A3F10103BDE801894FEA14454FEA41
:101B1000114724EA054621EA074C05FB07F406FBBA
:101B200007F70CFB06F105FB0CFC11EB074144EB3E
:101B300017444FEA124711EB0C4144EB1C4422EAD4
:101B4000074C05FB07F206FB07F70CFB06F605FB47
:101B50000CFC16EB074642EB174216EB0C4642EB29
:101B60001C456A1854F1000148BF7047B61952412C
:101B700041EB0101A3F10103704795F0000F37D04D
:101B80004FEA11424FEA144721EA024624EA074C81
:101B900002FB07F106FB07F70CFB06F402FB0CFC4B
:101BA00014EB074441EB17414FEA154714EB0C4483
:101BB00041EB1C4125EA074C02FB07F506FB07F742
:101BC0000CFB06F602FB0CFC16EB074645EB174533
:101BD00016EB0C4645EB1C42121951F1000148BFAF
:101BE0007047B619524141EB0101A3F1010370475F
:101BF0004FEA14454FEA114724EA054621EA074C0B
:101C000005FB07F106FB07F70CFB06F24FF0000699
:101C100005FB0CFC12EB074241EB174112EB0C42A7
:101C200051EB1C4148BF7047921841EB0101A3F1F1
:101C30000103704730EE600ADFED090A094901E04F
:101C400030EE600A10EE100A8842F9DA064900BF49
:101C500010EE100A884202D930EE200AF8E77047E9
:101C6000DB0FC940DB0F4940DB0F49C0002801D022
:101C700090F83200704700002DE9FF4F85B01546FF
:101C8000129E04007ED00029FCD0002DFAD0002E38
:101C9000F8D09148007818B1022009B0BDE8F08F63
:101CA000C4E9001508982081E660139820824FF05F
:101CB000000884F8308084F8318084F8328084F819
:101CC000338084F83480C4F83880C4F83C80C4F889
:101CD0004080C4F844802846089906F035FF304615
:101CE000139906F031FF052001F0DCFD4FF00109EA
:101CF00003AFCDE900790023CDF8089029462046AE
:101D0000089A08F05BF900283CD1CDE90079BA4681
:101D10000023CDF8089029462046089A08F04EF98D
:101D20000028F1D19DF80C001E28EDD1B6200090BE
:101D30007E2329462046089A09F060F80028E3D15E
:101D4000322001F0AFFD4F46CDE900A7D146002378
:101D5000029729462046089A08F030F90028D3D186
:101D60003846CDE90090BA4602904F4600232946F6
:101D70002046089A08F022F9002803D19DF80C00AB
:101D80001E2800E07CE07BD1C1467C23CDF800809A
:101D900029462046089A09F031F8002870D105201C
:101DA00001F080FD4FF0040B7D23CDF800B02946F3
:101DB0002046089A09F022F8002877D1052001F082
:101DC00071FDAB200090402329462046089A09F077
:101DD00015F800286AD1D0464123CDF800A0294645
:101DE0002046089A09F00AF800285FD1322001F055
:101DF00059FD8DE88003002331462046139A08F0F0
:101E0000DDF8E8BB9DF80C000F284FD1B6200090FC
:101E1000142331462046139A08F0F0FF80BB32208D
:101E200001F040FD4F460F23CDF80090314620468B
:101E3000139A08F0E3FF18BB0220009010233146EC
:101E40002046139A08F0DAFFD0B9112300973146E3
:101E50002046139A08F0D2FF90B91E2001F022FD0F
:101E60000A200090532329462046089A08F0C6FF0E
:101E700030B95823CDF800B029462046089A00E032
:101E800014E008F0BBFF88B945461623CDF8008062
:101E900031462046139A08F0B1FF38B9182300954F
:101EA00031462046139A08F0A9FF08B10120F4E654
:101EB00084F83050204600F011F848B98020009096
:101EC000152331462046139A08F098FF0028EED0DB
:101ED00084F83070EAE700002C00002010B50446BA
:101EE00000F00CF818B9204600F029F808B10120DC
:101EF00010BD2046BDE8104000F042B810B586B0D5
:101F0000040014D094F8300088B194F8310010B176
:101F1000022006B010BD0122062103A88DE80700AB
:101F2000228912232046616808F048F808B1012090
:101F3000EFE703A9204607F09BF80020E9E710B57A
:101F400086B0040014D094F8300088B194F83100C1
:101F500010B1022006B010BD0022062103A88DE8B2
:101F60000700228A02232046E16808F027F808B11A
:101F70000120EFE703A9204607F094F80020E9E7E5
:101F80001FB5040014D094F8300088B194F83100E3
:101F900010B1022004B010BD0122022103A88DE877
:101FA0000700228922232046616808F007F808B15B
:101FB0000120EFE703A9204607F0CCF80020E9E76D
:101FC00070B5040027D094F8300020B394F83100A5
:101FD00038B1A06B081A052803D90321204608F060
:101FE000E3F894F83400134DB8B1206802F026F9F4
:101FF0002189606806F0A8FD218AE06806F0A4FD4A
:102000000020287084F8310084F8320084F834000D
:10201000E06B401CE063012070BD2878022802D0EC
:102020002878042804D1204606F0C4FC0128F3D007
:10203000002070BD2C0000201CB530B190F830108D
:1020400019B190F8341041B901E001201CBD90F89D
:10205000311011B90B490A780AB102201CBD486041
:10206000012180F83110002280F83220022280F80D
:1020700033200822CDE9002102891223416808F0AB
:1020800093FA1CBD2C000020FEE70000014800F080
:10209000CEBF00004C060020014800F0C8BF000081
:1020A0004C060020014800F0C2BF0000740600206A
:1020B000014800F0BCBF00007406002070B5054662
:1020C000EFF3108272B61F4C207908B1C2B370BD15
:1020D0000120207102B962B6A06820B119491A4ADC
:1020E000891C08F031F8E06828B1174A1549121D1B
:1020F000C91C08F029F82946144808F0A1FB134828
:102100002946483008F09CFB10482946A43008F0C6
:1021100097FB0D482946C43808F092FB0A488C38D2
:10212000002190F82C202AB1026BAA1A0A2A01D9A0
:1021300080F82C10EFF3108072B621710028C6D100
:1021400062B670BD0800002050030020A0010020EE
:1021500010B5002809D0EFF3108472B65422034959
:10216000FEF778FA002C00D162B610BD1C030020E7
:1021700070B50D462DED028B82B006007ED0002D8D
:102180007FD0424C54214248C4E90265FEF79CFAD4
:102190000022227022616270A270E27022719FEDB3
:1021A0003D8A02213C48F0EE480AB0EE480A03F0AE
:1021B000A5FC3948F0EE480AB0EE480A0321483041
:1021C00003F09CFC3448F0EE480AB0EE480A0221C5
:1021D000903000F02DFC2E48F0EE480AB0EE480A90
:1021E0000521A43803F0E0FB2948F0EE480AB0EEE0
:1021F000480A0121583800F085F9274840F20323A6
:1022000090305A1E0078002100F501700090019076
:10221000304606F0A9FB88BB1D4840F2052258381D
:102220000E210378284603F54073CDE9002306F01C
:102230009BFB18BB304601F02FF9F8B9284601F096
:102240002BF9D8B900220521162001F003FD162034
:1022500001F0F3FC00220521422001F0FBFC4220AA
:1022600001F0EBFC48F603742146304600F00DFD0A
:1022700020B92146284600F008FD00E001E00028D2
:1022800000D0012002B0BDEC028B70BD0800002020
:102290001C030020000000008C01002008B507F09E
:1022A0009FFF0020034602460146009006F096FC80
:1022B00008BD0000F0B52DED028BB0EE408A81B074
:1022C000B5EEC08AF1EE10FA04D8012001B0BDECE1
:1022D000028BF0BD01F016FC0446FFF7EFFE00F0A4
:1022E0002FF818B307F0C4FFB0EE480A134803F004
:1022F00049FC05461148B0EE480A483003F042FC5C
:1023000006460E48B0EE480AEC3003F095FB07464F
:10231000204606F0EBFA0028D8D0002002460090B4
:102320003B463146284606F059FCCFE701B0BDECEC
:10233000028BBDE8F040FFF7B1BF00008C01002028
:1023400000B595B06846FFF703FF9DF8500010B93F
:10235000BDF83E0010B1002015B000BD0120FBE724
:102360002DE9F043054629480C462DED028B81B03E
:102370008168B0EE408A31B1C06820B1B5EEC08A44
:10238000F1EE10FA05D8012001B0BDEC028BBDE8DA
:10239000F08301F0B7FB8046FFF790FEB0EE480AED
:1023A0001B4803F0EFFB81461948B0EE480A48305D
:1023B00003F0E8FB07463DB11548B0EE480A9030FF
:1023C00000F096FB054602E007F05AFF0025104892
:1023D000B0EE480AEC3003F02FFB064634B1B0EE05
:1023E000480A0C4800F000F9044602E007F08AFFB2
:1023F0000024404606F07AFA0028C5D033462A4623
:1024000039464846009406F0E9FBBDE70800002085
:102410008C010020C4020020064A92F82630002BCE
:1024200006D0936AC01A884202D9002082F826009A
:1024300070470000B403002070B5050008D0EFF32A
:10244000108472B62C220549FEF704F914B102E09B
:10245000002070BD62B695F8260070BDB403002060
:1024600010B558B1064C2C2160600648FEF72CF9D7
:1024700000202070BDE8104008F0C8B8012010BD51
:1024800024000020B4030020002833D0002931D0DC
:102490000378002B2ED0082B2CD80B88DFED160AE2
:1024A0005BBAC3F30C0300EE103A4380B8EE400A67
:1024B00020EE200ADFED110A20EE200ADFED100ADF
:1024C00080ED010A4B885BBA1BB200EE103AB8EE01
:1024D000C00A80EE201A80ED021A8B885BBA038452
:1024E0008B7980F82930C97980F82A10012102639C
:1024F00080F82C1070470000DB0FC9400000003945
:102500000000C84270B50D462DED028BB0EE608A1A
:10251000F0EE408A04001AD05821FEF7D5F8681E64
:10252000072800D82570B7EE001A84ED071AF0EEE0
:10253000480AB0EE680ABDEC028B04F134009FED4E
:10254000051ABDE87040F0EE411A03F0B1BDBDECD4
:10255000028B70BD0000804610B528B122B11BB1BE
:1025600004780CB1082C01D9002010BD042C05D82A
:1025700040F2FE3414800078401E04E040F2FE4435
:1025800014800078401F4FF48042C0B2914202DCB8
:102590005242914200DA114603F8101003EB40005A
:1025A000090A4170012010BD002801D080ED040A05
:1025B0007047002801D080ED030A704700280FD033
:1025C00010EE101AB1F17E5F01DDB7EE000AB5EE34
:1025D000C00AF1EE10FA01D29FED020A80ED070A5F
:1025E000704700000000000070B504002DED048B62
:1025F00004D0B5EEC00AF1EE10FA03D80020BDEC0D
:10260000048B70BD94F82C1004F13400DFED608A67
:1026100019B1217809B1082907D903F061FD00201B
:1026200084F82B00C4ED058AE8E794F82810DFED64
:10263000599AB6EE009A4FF08D45F9B1D4ED098A5A
:1026400018EE900AA84202DDF0EE698A06E018EE64
:10265000900A10F1665F01D9DFED4F8AF5EEC08A6E
:10266000F1EE10FA02DB38EE890A01E038EEC90A11
:10267000BDEEC00A10EE100A00B2C0E794F82B10AD
:10268000F1B394ED021AD4ED060AD4ED071A31EE37
:10269000601A41EE810AC4ED060A00BFD4ED031AA8
:1026A000B0EE401AB0EE610A03F058FCD4ED040A13
:1026B00094ED138A18EE100A30EE200AA84201DDCC
:1026C000B0EE698AB5EEC08AF1EE10FA01D2B0EE32
:1026D000688AB4EEC80AF1EE10FA01DDB0EE480ADD
:1026E000F1EE480AB4EEE00AF1EE10FA01D2B0EED3
:1026F000600A94ED031AF0EEC11A11EE900A00E0A0
:1027000011E02649884218DBF0EEC01A11EE900A5B
:102710002349884211DAB5EEC01AF1EE10FA0ADD4B
:102720009FED200A09E0D4ED020A0121C4ED060A5A
:1027300084F82B10B2E79FED1C0A94ED051A31EED8
:10274000000AB4EEC80AF1EE10FA01DDB0EE480A54
:10275000B4EEE00AF1EE10FA01D2B0EE600AB5EE86
:10276000C00AF1EE10FA02DB70EE090A01E070EE29
:10277000490AFDEEE00A10EE900A00B200EE900A5F
:10278000F8EEE00A30EE600A84ED050A37E7000053
:102790000000000000008046000080C6CDCC4C3E0A
:1027A0000000A0420000A0420000A0C2014800F0CA
:1027B00007BF000044080020014800F001BF0000EE
:1027C000A4080020014800F0FBBE0000040900201E
:1027D000014800F0F5BE000064090020014800F047
:1027E000EFBE0000F4060020014800F0E9BE000042
:1027F0005407002001681823CAB2103AB2FBF3F262
:10280000054B6FF30901032A9B5CC36500D9091DC1
:102810008165084670470000ACC4000810B5014649
:1028200000208B698A6A4FF0C07453B1B3F5005F22
:1028300015D072B1012A0CD0022A0AD0032A09D17C
:1028400004E01AB1012A06D0022A03D1C96AC901DB
:1028500000D5012010BDC96AA142FAD010BD002ADE
:10286000F7D0012AF2D0022AF3D0032AF3D010BD08
:1028700030B50468256825F4802525600468636008
:102880008368402B036803D099600068C26030BD44
:102890009A600068C16030BD4FF000082DED028BDA
:1028A000ACB0454644464746182118A8FDF70CFF32
:1028B0009FED4A8ADFED4A8A4A4E00BF06F056FE77
:1028C00034210BA8FDF700FF01F01CF90146464832
:1028D000FFF776FB0BA918A807F0D6FE814601F09A
:1028E00011F96421FFF798FD01F00CF9FFF7E6FB01
:1028F0006846FFF7A1FDE0B30A98A04252D09DF8C8
:10290000250010B99DF8240090B1002421466846A6
:1029100007F058FABDF8060006F080F88146BDF8C9
:10292000000006F07BF8179924B141F0080103E09C
:102930000124EBE741F0100117915FB354B3C14597
:1029400012D0B9F1000F04DD9DED140A30EE080A33
:1029500004E009DA9DED140A30EE480A8DED140A00
:10296000179941F002011791A84213D0002806DA06
:1029700000E017E09DED150A30EE280A04E009DDBD
:102980009DED150A30EE680A8DED150A179941F094
:10299000040117912746C84605460A9C01F0B2F883
:1029A000169002E0B9F1000F14D00DF12C090023AC
:1029B0001A464946306806F033FA58B100231A46E1
:1029C0001EA9306806F0CEF900231A464946306841
:1029D00006F026FA012006F06BF96FE7920A06BFAF
:1029E000920A063F9C000020440100207047002806
:1029F0000FD000290DD00B885BBA03804B885BBADF
:102A000043808B885BBA83808979817101218260E0
:102A100001737047012000F06BBF202000F068BFF9
:102A200072B6FEE7002802D02830FFF7E0BF7047FB
:102A300070B50D462DED028BB0EE608AF0EE408A47
:102A4000040017D05C21FDF73FFE2570B7EE000AA9
:102A500084ED040AF0EE480AB0EE680ABDEC028B81
:102A600004F138009FED051ABDE87040F0EE411A00
:102A700003F01EBBBDEC028B70BD00000060EA4697
:102A8000002801D080ED010A7047000000280FD017
:102A900010EE101AB1F17E5F01DDB7EE000AB5EE5F
:102AA000C00AF1EE10FA01D29FED020A80ED040A8D
:102AB0007047000000000000002810D010EE101A2F
:102AC000074B084A994202DD9FED070A05E010EE28
:102AD000101A914201D99FED050A80ED020A704754
:102AE0000060EA460060EAC60060EA460060EAC6A6
:102AF00010B504002DED048B0DD094F83410DFEDEB
:102B00003F8A04F1380041B1217F81B1B4F91E0040
:102B1000BDEC048B10BD0020FAE703F0E1FA0020C1
:102B200020752077C4ED088AC4ED098AF3E7617D3A
:102B300011B1D4ED060A05E0B4F92A1000EE901A9E
:102B4000F8EEE00A217D51B3D4ED031A94ED041A96
:102B500070EEE10A41EE201AC4ED031AD4ED020A28
:102B6000DFED279A9FED279AD4ED012A39EEE02A6E
:102B700079EE601AB0EE401AD4ED030AB0EE620AA4
:102B800003F0F8F9D4ED020A1F4A204930EE808A9A
:102B900018EE100A904207DDB0EE698A0AE0C4ED33
:102BA000030A01212175D9E718EE100A884201D9DC
:102BB000B0EE498AD4ED010AB0EEE01A11EE100A27
:102BC000B0F17E5F10DBB0EEC81AB5EEC01AF1EEC0
:102BD00010FA09D2F5EEC00AF1EE10FA02DDB0EEFD
:102BE000688A01E09FED0A8A84ED080A84ED098A6B
:102BF000BDEEC80A10EE100A00B289E7000000001E
:102C00000060EA460060EAC60060EA460060EAC684
:102C10000000008070B5EFF310844FF47A718842A1
:102C200002DC4942884200DA084672B6044D288028
:102C300000F068FFA860002C00D162B670BD0000F3
:102C40004800002090F82020012A07D0022A05D051
:102C5000416A41F48021416201207047CA0704D0D3
:102C60000268936843F0800393608A0704D5026882
:102C7000936843F400439360490704D50068816872
:102C800041F4000181600020704790F82020012A63
:102C900007D0022A05D0416A41F480214162012017
:102CA0007047006842690A43426100207047F0B5EE
:102CB00090F820500468A468012D05D0022D03D09F
:102CC000416A41F4802157E014F0406F01D1E500E2
:102CD0004FD5C4F301640125A5401D608D684FF4F4
:102CE000C0739DB1CE6835434E6845EAC605066897
:102CF00003EB0417F5514FF4C275076805EB041593
:102D00000E697E51097D012905D009E00E88CD6844
:102D100045EA4655EBE701684E5946F480764E5138
:102D20001179D579567941EA056195792D0445EAFD
:102D3000062529434FF4C676056806EB0416A9510B
:102D40001178D57841EA0561957852782D0445EAE5
:102D5000022211434FF4C475026805EB041551516A
:102D6000006803EB0411425842F001024250002077
:102D7000F0BD416A41F4001141620120F0BD000044
:102D800010B590F82020012A07D0022A05D0416A08
:102D900041F480214162012010BD3B48D0F800225F
:102DA00042F00102C0F80022D0F8002222F47C5246
:102DB000C0F80022D0F800224B6A42EA0322C0F891
:102DC00000220A7D02F01F0301229A40D0F81C3233
:102DD0009343C0F81C32CB69B3B9D0F80C3293439B
:102DE000C0F80C328C894B6864F31F434C6900EBCC
:102DF000C404C4F840320C890B6864F31F434C6967
:102E000000EBC404C4F84432CB69012B16D1D0F8CE
:102E10000C321343C0F80C320C884B6864F31F4328
:102E20004C6900EBC404C4F840320C89CB6864F3ED
:102E30001F434C6900EBC404C4F844328B69002B77
:102E4000D0F804320ED01343C0F804320B69002BC3
:102E5000D0F8143208D01343C0F81432096A01299B
:102E600004D008E09343EFE79343F5E7D0F81C1252
:102E70001143C0F81C12D0F8001221F00101C0F873
:102E80000012002010BD00000064004070B5144C1A
:102E90000546A068854202D0E06885421FD12846D9
:102EA00000F022F8EFF3108272B60E494B685B1CFB
:102EB0004B60A6680123B54207D1486240070BD595
:102EC000C86A401CC862A37006E08862400703D548
:102ED000086B401C0863E370002A00D162B670BD25
:102EE000080000201C030020406A704702460020B2
:102EF00092F82030012B01D0022B05D1106821B1AE
:102F0000D0F8100000F003007047C068FAE770B511
:102F100090F82040012C05D0022C03D0416A41F4E6
:102F2000802128E0046809B32469A40720D04FF465
:102F3000D874056804EB01142D5915F0040595604B
:102F400005682D591AD0ED08556005682C5904F014
:102F50000204D4604FF4DA74056804EB01142E59AE
:102F600006F00F06082E0CD308250DE0E468DCE718
:102F7000416A41F400114162012070BD6D0D156080
:102F8000E3E72D5905F00F05156105682D59C5F3C7
:102F90000725956105682C59240C54614FF4DC72A7
:102FA000046802EB0112A4581C700468A458240A97
:102FB0005C700468A458240C9C700468A258120E1B
:102FC000DA704FF4DE72046802EB0112A4581C712F
:102FD0000468A458240A5C710468A458240C9C71E9
:102FE0000468A258120EDA71006829B1016941F033
:102FF00020010161002070BDC16841F02001C16065
:10300000F8E70246002092F82010012901D0022999
:103010000CD111688A68520100D501208A6812011A
:1030200000D5401C8968C90000D5401C70472DE9B7
:10303000F05F0546006800244669D0F80490876870
:10304000D0F80CB0D0F810A0D0F81880F10748D014
:10305000F90714D001218160B80703D5284600F094
:1030600048FA0CE0780702D54FF4006407E038070F
:1030700002D54FF4805402E0284600F039FAF805F2
:1030800016D529684FF480708860B80503D52846A6
:1030900000F032FA0CE0780502D544F4005407E061
:1030A000380502D544F4804402E0284600F023FAB3
:1030B000F80316D529684FF480308860B80303D52B
:1030C000284600F01CFA0CE0780302D544F40044D2
:1030D00007E0380302D544F4803402E0284600F0CB
:1030E0000DFA300707D55FEACB6004D529681020B8
:1030F00044F40074C86070074FF0080707D55FEA12
:103100000B7004D52868C760284600F0ACF9B007FA
:1031100006D52868C068800702D0284600F0A4F9C8
:10312000700607D55FEACA6004D52968102044F408
:1031300080640861B00607D55FEA0A7004D5286884
:103140000761284600F0A4F9F00606D52868006952
:10315000800702D0284600F09CF9B00308D55FEA4A
:10316000C96005D5296810204860284600F092F90A
:10317000F00307D55FEA097004D528684760284640
:1031800000F0BFF9300446D55FEA497040D5F0053C
:1031900004D55FEAC87001D044F00104B00504D53D
:1031A0005FEA887001D544F00204700504D55FEA37
:1031B000487001D544F00404300529D518F0700F8B
:1031C00026D008F07000402815D006DC102809D061
:1031D00020280AD0302816D10AE050280ED06028C6
:1031E00011D10EE044F008040DE044F010040AE0B0
:1031F00044F0200407E044F0400404E044F080047C
:1032000001E044F480742868816921F070018161D3
:10321000296804204860002C05D0686A2043686251
:103220002846FFF733FEBDE8F09F70B5040003D0D9
:1032300094F8200010B104E0012070BD204600F099
:1032400081F82068016841F00101016000F05AFC3A
:103250000546052604E000F055FC401B0A2811D85D
:1032600020684068C007F6D02068016821F002019C
:10327000016000F047FC05460BE000F043FC401BFA
:103280000A2806D9606A40F40030606284F8206041
:10329000D2E7206840688007EFD4207E01282068AC
:1032A00001683DD021F080010160607E0128206826
:1032B000016838D021F040010160A07E012820681B
:1032C000016833D021F020010160E07E01282068F0
:1032D00001682ED041F010010160207F0128206894
:1032E000016829D021F008010160607F0128206871
:1032F000016824D021F004010160D4E902010843EF
:10330000D4E90412114308436168491E0843216847
:10331000C86100206062012084F82000002070BD98
:1033200041F08001C0E741F04001C5E741F02001D4
:10333000CAE721F01001CFE741F00801D4E741F0DE
:103340000401D9E7F0B587B0044614216846FDF7BB
:10335000BBF9374B3748DFF8D4E01968D4F800C020
:10336000344A02250326092710300024491CF4455D
:1033700024D11960012907D1016841F00071016071
:10338000006800F000700590106840F001001060C7
:10339000106802AB00F0010005904FF4C050CDE979
:1033A000000583E8D0006946234800F0ADFA00220A
:1033B0000521142000F04EFC142033E0DFF87CE0FF
:1033C000F44531D1D0F800C04CF0806CC0F800C09A
:1033D000D0F800C001290CF0806CCDF814C0196041
:1033E00007D1016841F000710160006800F00070D1
:1033F0000590106840F002001060106802AB00F009
:10340000020005904FF44050CDE9000583E8D0005C
:1034100069460B4800F078FA00220521402000F0B0
:1034200019FC402000F009FC07B0F0BD006400402A
:10343000B000002030380240000002400068004028
:103440000004024090F820200021012A08D0022A1E
:1034500006D0416A41F4802141620121084670474B
:1034600000224262FAE7704710B5044607488168B7
:103470008C4202D0C068844207D100F043FB014671
:103480002046BDE8104005F0FDBF10BD080000203B
:10349000704770477047000070B5044690F82000F0
:1034A000012804D0606A40F40020606218E0022025
:1034B00084F820002068016821F00101016000F01B
:1034C00021FB05460EE000BF00F01CFB401B0A2854
:1034D00008D9606A40F400306062052084F820005A
:1034E000012070BD20684068C007EDD1606270BDEA
:1034F000704706F0A9BD704706F0A6BD704706F0FC
:10350000A3BD70472DE9F0410446876D00F0FAFA3B
:10351000064694F835000025022806D08020606514
:1035200084F834500120BDE8F0812068016821F062
:10353000160101602068416921F080014161206C21
:1035400008B9A06C20B12068016821F00801016071
:103550002068016821F0010101600CE000F0D2FA5E
:10356000801B052807D920206065032084F83500DA
:1035700084F83450D7E720680068C007EED194F88B
:103580005C103F208840B860012084F8350084F842
:1035900034500020C7E790F83510022903D080216D
:1035A000416501207047052180F8351000680168E9
:1035B00021F00101016000207047406D704700005C
:1035C0002DE9F84304464FF00009CDF80090634818
:1035D0004FF41651A56D0068B0FBF1F72E6894F812
:1035E0005C10082000FA01F131420FD021680A680E
:1035F00052070BD50A6822F004020A6094F85C10A6
:103600008840A860606D40F00100606594F85C102F
:103610004FF0010808FA01F0304208D021684969EA
:10362000090604D5A860606D40F00200606594F85A
:103630005C1004208840304208D02168096889075E
:1036400004D5A860606D40F00400606594F85C10DB
:1036500010208840304218D021680968090714D525
:10366000A86020680168490304D50068000308D5F4
:10367000A16C07E00168C90503D4016821F00801C5
:103680000160216C09B12046884794F85C10202025
:103690008840304231D021680968C9062DD5A8601C
:1036A00094F8350005282068016806D0490347D5FD
:1036B000006800031DD4616C1CE021F0160101605C
:1036C0002068416921F080014161206C08B9A06C3B
:1036D00020B12068016821F00801016094F85C10B5
:1036E0003F208840A86084F8358084F83490216DAC
:1036F0001FE0E16B09B120468847606D00282BD0A0
:10370000606DC00714D0052084F83500206801687A
:1037100021F0010101600098401C0090B84203D8DC
:1037200020680068C007F6D184F8358084F83490AA
:10373000E16C002910D001B02046BDE8F0430847F5
:103740000168C905D5D4016821F01001016084F831
:10375000358084F83490CCE7BDE8F883C0000020C1
:103760002DE9F041044600F0CDF906465CB1022097
:1037700084F83500002584F834502068016821F071
:10378000010101600DE00120BDE8F08100F0BAF90F
:10379000801B052805D920206065032084F83500AA
:1037A000F2E720680068C007F0D12268116820485D
:1037B0000140D4E901031843D4E9033633431843E5
:1037C00063691843A3691843E3691843236A1843DC
:1037D0000843616A042903D1D4E90B131943084350
:1037E000106020684069666A20F0070130460E4389
:1037F000012704280CD1A06A0643E06A40B12046A4
:10380000FFF70CF820B14020606584F83570BAE706
:10381000206846612046FEF7EDFF94F85C203F21CA
:1038200091408160656584F835700020ACE7000048
:103830003F8010F02DE9F0410446866D90F8340089
:10384000002501280DD0012084F8340094F835704B
:103850000020012F07D084F8340002252846BDE857
:10386000F0810220FBE7022784F83570606520466E
:10387000FEF7FEFF94F85C103F208840B06020689F
:10388000016841F016010160206C20B120680168D8
:1038900041F0080101602068016841F00101016008
:1038A000DCE7000070B5044600F02CF90546601C0A
:1038B00002D004480078044400F024F9401BA042E0
:1038C000FAD370BDB40000200749202805D0012894
:1038D00002D14868401C486070470868401C086076
:1038E0000248FEF7A9BB00000000002044010020B0
:1038F000044910B50A68024202D00860FFF7E4FFED
:1039000010BD0000143C01402DE9F84FDFF8BCA1C8
:103910000022012503264FF00F090AF1040BAAF13A
:10392000040E00BF0B6805FA02F42340A34270D1D5
:103930000F7907F00307012F01D0022F16D18768F6
:103940004FEA420806FA08FC27EA0C07D1F80CC037
:103950000CFA08FC4CEA070CC0F808C04768A743FB
:103960000C79C4F3001494403C4344600C79E44364
:10397000A4070AD0C4684FEA420C06FA0CF7BC430D
:103980008F6807FA0CF72743C7600C7904F003042B
:10399000022C12D1D40800EB840CDCF8204057072D
:1039A000FF0E09FA07F824EA0804D1F8108008FA93
:1039B00007F848EA0408CCF8208004684FEA420C73
:1039C00006FA0CF7BC430F7907F0030707FA0CF768
:1039D000274307604C6814F4403F70D03C4C276884
:1039E00047F480472760246822F0030704F48044EA
:1039F0000094384C07EB040CDCF8084897074FEAB2
:103A0000177809FA08F7BC43334FB84202D10027B0
:103A100024E054E0314FB84201D101271EE0304F7D
:103A2000B84201D1022719E02E4FB84201D1032735
:103A300014E02D4FB84201D104270FE02B4FB842BC
:103A400001D105270AE02A4FB84201D1062705E037
:103A5000284FB84201D1072700E0082707FA08F7E6
:103A60002743CCF80878DAF800405746D1F804C06C
:103A70009C435FEACC2C00D51C433C60DBF8004043
:103A80005F46D1F804C09C435FEA8C2C00D51C43F0
:103A90003C60DEF800407746D1F804C09C435FEA02
:103AA0008C3C00D51C433C60084F083F3C68D1F873
:103AB00004C09C435FEACC3C00D51C433C60521CD4
:103AC000102AFFF42FAFBDE8F88F0000083C01403A
:103AD000443802400030014000000240000402402F
:103AE00000080240000C0240001002400014024096
:103AF00000180240001C02400AB1816170470904AD
:103B0000FBE700000148806870470000B400002017
:103B1000024881680278114481607047B400002037
:103B20000B4810B5016841F400710160016841F46F
:103B300080610160016841F480710160032000F040
:103B4000A9F80F2000F006F800F04AF8002010BD98
:103B5000003C024030B505461C4887B0002401688F
:103B600041F001010160006806A900F00100009029
:103B700001A800F03BF900F069F915494000B0FBDD
:103B8000F1F11548134A491E026040F2E732C0E9DC
:103B90000324C0E90114846100F0E1FF040012D1A4
:103BA0000D4801F00BF804000DD1192000F045F884
:103BB000102D07D200222946192000F04BF80748A3
:103BC000056000E0012407B0204630BD44380240C3
:103BD00040420F0000000140C4090020B80000204E
:103BE0000C4882B0016841F480410160006800F433
:103BF000804000900748001F016841F0805101603B
:103C00000068002200F0805000900F21901E02B04A
:103C100000F020B84438024000280DDB00F01F02FD
:103C2000012191404009800000F1E020C0F880119E
:103C3000BFF34F8FBFF36F8F7047002809DB00F091
:103C40001F02012191404009800000F1E020C0F8EE
:103C500000117047F0B40E4B1B680C46C3F30223EF
:103C6000C3F10705042D00D90425191D072901D228
:103C7000002300E0DB1E012606FA05F1491E214063
:103C800099409E40761E16403143F0BC04F027B99F
:103C90000CED00E0064900F0070208684FF6FF034C
:103CA000184040EA0220034A1043086070470000B1
:103CB0000CED00E00000FA052DE9F0470E46050086
:103CC00065D0DFF81481D8F80000F7B200F00700E3
:103CD000B04207D288F80070D8F8000000F0070062
:103CE000B04254D128683D4C810712D5400703D516
:103CF000206840F4E05020602878000703D5206851
:103D000040F4604020602068A96820F0F00008437B
:103D100020602878C0072DD030496868083901280C
:103D200012D0022813D0032811D00968890700296E
:103D30002DDA216821F0030101432160FFF7E2FE43
:103D4000814641F2883A0EE009688903EFE7096885
:103D50008901ECE7FFF7D6FEA0EB0901514502D936
:103D60000320BDE8F0872068696800F00C00B0EB24
:103D7000810FEFD1D8F80010404601F00701B142A1
:103D800007D90770006800F00700B04201D0012099
:103D9000E7E72878400705D52068E96820F4E05077
:103DA000084320602878000706D52068296920F498
:103DB000604040EAC100206000F058F82168084ADD
:103DC000C1F30311515CC840064908600648006809
:103DD000FFF7C0FE0020C4E7003C02400838024064
:103DE000B4C40008C0000020B80000200F22026008
:103DF0000C4A136803F003034360136803F0F003F5
:103E00008360136803F4E053C36012684FF4E05317
:103E100003EAD20202610448006800F0070008606B
:103E20007047000008380240003C02400448054941
:103E300000680968044AC1F38221515CC840704798
:103E4000C000002008380240C4C4000804480549E6
:103E500000680968044AC1F34231515CC8407047A8
:103E6000C000002008380240C4C40008154810B53E
:103E7000006810F00C02144813D01449042A0FD023
:103E8000082A0ED10F4C241F2268236802F03F023B
:103E90005B0207D52068C0F38810A0FB010106E093
:103EA000084610BD2168C1F38811A1FB0001002361
:103EB000FCF768FA2168C1F30141491C4900B0FBD5
:103EC000F1F010BD083802400024F40040787D0174
:103ED0002DE9F84F04006ED02078DFF84C93C0072E
:103EE000A9F104054AD009F104000168C1F3810178
:103EF000012908D00068C0F3810002280AD1D9F84E
:103F00000000400206D52868800337D56068002885
:103F1000E1D033E06068B0F5803F10D0B0F5A02F5D
:103F2000286810D020F480302860286820F4802091
:103F300028606068A8B1FFF7E5FD06460DE0286837
:103F400040F48030F4E740F480202860F7E700BFB9
:103F5000FFF7D8FD801B642873D828688003F7D545
:103F60000CE0FFF7CFFD064605E000BFFFF7CAFDF6
:103F7000801B6428F0D828688003F7D42078DFF805
:103F8000AC8280074FF0000A3ED5A748001D0168AB
:103F900011F00C0F08D00068C0F3810002280BD18B
:103FA000D9F80000400207D42868800716D5E068D9
:103FB000012800D112E033E1E068B8B10120C8F86F
:103FC0000000FFF79FFD064605E000BFFFF79AFDE2
:103FD000801B0228C0D828688007F7D52868216987
:103FE00020F0F80040EAC10028600DE0C8F800A009
:103FF000FFF788FD064604E0FFF784FD801B0228DA
:104000001FD828688007F7D42078000722D5864F6C
:1040100087486169703771B101210160FFF772FD56
:10402000064604E0FFF76EFD801B022809D83868B9
:104030008007F7D50EE0C0F800A0FFF763FD064645
:1040400005E082E0FFF75EFD801B02287DD838681E
:104050008007F7D42078400768D5DFF8CCB1002777
:104060000BF13C0BDBF80000C0000BD4DBF80010B8
:1040700041F08051CBF80010DBF80000012700F080
:10408000805000906B4E3068C00510D4306840F40A
:1040900080703060FFF736FD009005E0FFF732FDDD
:1040A0000099401A022850D83068C005F6D55E4EF7
:1040B000A0686C3601280FD00528306810D020F099
:1040C00001003060306820F004003060A068B8B1B2
:1040D000FFF718FD00900FE0306840F00100F4E7B2
:1040E00040F004003060F7E7FFF70CFD0099411A3B
:1040F00041F28830814266D830688007F4D50EE0FE
:10410000FFF700FD009007E0FFF7FCFC0099411A63
:1041100041F28830814256D830688007F4D42FB1FC
:10412000DBF8001021F08051CBF80010A069C8B373
:104130003D49091D0968C1F3810102294AD00228BD
:10414000504607D0C8F8600000E03CE0FFF7DAFC1A
:1041500004463BE04746C8F86000FFF7D3FC06463C
:1041600005E000BFFFF7CEFC801B02282BD8286893
:104170008001F7D4D4E907010843A16A2E4A49080F
:1041800002EB0141626A41EA8211084394F82C1063
:1041900040EA0161C9F8001001203866FFF7B2FC5F
:1041A000044606E03EE000BFFFF7ACFC001B02281F
:1041B00009D828688001F7D534E000BFFFF7A2FCDA
:1041C000001B022802D90320BDE8F88F286880016F
:1041D000F4D427E00128F7D0D9F80000E26900F410
:1041E000800191421CD1226A00F03F01914217D117
:1041F00047F6C071626A0140B1EB821F10D1A26A1A
:104200004FF0FF3300F4403103EB5202B1EB024FA9
:1042100006D194F82C1000F07060B0EB016F01D063
:104220000120D1E70020CFE70438024000004742D8
:10423000800E4742007000400000FFFF2DE9FC4166
:104240000446444845F6C05100260068B0FBF1F032
:1042500064214843019000902068416821F02001CA
:1042600041602068416809060CD53B4961640099AA
:1042700000295DD0491E009194F851100729F6D10C
:1042800001990091416849060BD534492164009990
:10429000F1B3491E009194F851100729F7D1019903
:1042A000009140684FF0400780074FF0000514D59B
:1042B000A06C90B10565A06CFFF724F900B16765AB
:1042C0002068416821F0020141602068009971B3C3
:1042D000491E009181688907F8D520684068C007A9
:1042E00011D0E06C78B10565E06CFFF70BF900B117
:1042F00067652068016821F040010160206841681D
:1043000021F001014160E587E586606D402800E00D
:1043100013E01CD065652068C168816800918068E1
:104320000090012084F851003046BDE8FC8109E08E
:10433000616D41F040016165A2E7616D41F04001AE
:104340006165ACE7606D40F040006065C5E701263F
:10435000E1E70000C000002019730008C1720008E6
:10436000014605484068002805D002688A4202D10B
:10437000012105F019BF70472C00002070B5040022
:1043800009D0606A002540B125616561A56294F895
:10439000510040B10CE0012070BD6068B0F5827F33
:1043A000F4D0E561F2E784F85050204600F044F87C
:1043B000022084F851002068016821F0400101606A
:1043C000A088218900F4827001F404410843A18986
:1043D00001F400610843217C01F002010843217DC2
:1043E00001F001010843218B01F400710843217F92
:1043F00001F03801084394F8201001F080010843CF
:10440000218D01F40051084321680860A06904214E
:1044100001EA104094F8241001F0100108432168CB
:1044200048602068C16921F40061C16165650120AF
:1044300084F85100002070BD2DE9F04186B0064699
:1044400014216846FCF740F92B493068884250D166
:104450002A480024016841F480510160006800F49A
:104460008050059025481438016841F00101016031
:104470000068694600F001000590E02000900220ED
:10448000CDE9010403200390052004901C48FFF7A8
:104490003BFA1D4D1B484FF0C0672860C5E9017409
:1044A0004FF48068C5E903486C61AC61EC612C6233
:1044B00028466C62FFF754F908B1FEF7B1FAF564CB
:1044C000AE63114D0F4860354830E5E802074020E3
:1044D000A5E811010C4845F814496030AC61EC6165
:1044E0002C626C62FFF73CF908B1FEF799FAB564EB
:1044F000AE6306B0BDE8F0810030014044380240B0
:104500000000024010640240F40600202DE9F84F3C
:10451000044690F851001D4616460F46012838D132
:10452000002F77D0002E75D060684FF00408B0F5EA
:10453000827F01D1A06810B3FFF7E4FA824694F8B5
:104540005000012825D04FF0010984F8509084F8DC
:1045500051804FF00008C4F85480A763A687E6870F
:10456000C4F83080A4F83480A4F83680C4F84080C1
:10457000C4F84480A068B0F5004F0CD015E084F872
:104580005180009313460A46204600F01EF9BDE80C
:10459000F88F0220FBE72068016821F040010160EC
:1045A0002068016821F480410160206801684906A3
:1045B00003D4016841F040010160E068C0B134E01B
:1045C00020688168C90709D0007BA16B0870A06BC7
:1045D000401CA063E08F401EE08709E0FFF792FADD
:1045E000A0EB0A00A84202D3681C01D032E085B3D8
:1045F000E08F0028E4D11BE020688168C9070AD059
:10460000C068A16B0880A06B801CA063E08F401E77
:10461000E0870AE01BE0FFF775FAA0EB0A00A8426A
:1046200002D3681C01D015E09DB1E08F0028E3D1D2
:1046300052462946204602F0FAFE08B12020606565
:1046400084F8519084F85080606D00289FD001203C
:104650009DE7FFE784F8519084F85080032096E7A7
:10466000704770472DE9F84F984616468A4604462B
:10467000FFF748FA814694F8510001281ED1BAF19B
:10468000000F73D0002E71D094F85000012815D07F
:10469000012784F85070032084F8510000256565D7
:1046A000C4F830A0A686E686A563A587E58765647D
:1046B0002564A068B0F5004F03D00CE00220BDE8EF
:1046C000F88F2068016821F04001016020680168CE
:1046D00041F48041016020680168490603D4016803
:1046E00041F040010160E068B0F5006F606803D000
:1046F00048B3012E27D047E008B1012E1FD1206B0F
:1047000021680088C86006E020688168890709D5AB
:10471000216B0988C160206B801C2063E08E401EE5
:10472000E0860CE0FFF7EEF9A0EB0901414503D369
:10473000B8F1FF3F03D035E0B8F1000F32D0E08E82
:104740000028E1D123E0206B21680078087306E09F
:104750002068816889070AD5216B09780173206B6D
:10476000401C2063E08E401EE0860DE02BE0FFF74A
:10477000C9F9A0EB0901414503D3B8F1FF3F03D0CC
:1047800010E0B8F1000F0DD0E08E0028E0D14A46CD
:104790004146204602F07AFE08B120206065A068FC
:1047A00030B109E084F8517084F85050032086E756
:1047B0002068C1688068009084F8517004F8505FE8
:1047C00060680028F3D0012079E72DE9FF4F81B020
:1047D0001D46934604464FF001090E9EFFF792F9DD
:1047E000074694F851006168012806D0B1F5827F30
:1047F0003CD1A168C9BB042838D10298002871D0E7
:10480000BBF1000FFBD0002DF9D094F85000012827
:104810002CD04FF0010A84F850A094F851000428DD
:1048200002D0052084F851004FF00008C4F85480ED
:10483000C4F838B0E587A58702992163E586A58687
:10484000C4F84080C4F8448020680168490603D455
:10485000016841F040010160E068B0F5006F6068F8
:1048600008D0F0B3012D49D081E0FFE7022005B068
:10487000BDE8F08F08B1012D39D1206B2168008887
:10488000C860206B801C2063E08E401EE0862EE016
:104890002068816889070FD5E18E69B1B9F1010FF0
:1048A0000AD1216B0988C160206B801C2063E08ED7
:1048B000401EE0864FF0000920688168C9070CD0CF
:1048C000E18F51B1C068A16B0880A06B801CA06310
:1048D000E08F401EE0874FF00109FFF713F9C01B7E
:1048E00001E00BE067E0B04201D3701C50D1E08ED4
:1048F0000028CDD1E08F0028CAD13EE0206B21688E
:1049000000780873206B401C2063E08E401EE08618
:104910002DE02068816889070FD5E18E69B1B9F172
:10492000010F0AD1216B09780173206B401C2063B1
:10493000E08E401EE0864FF0000920688168C907BC
:104940000CD0E18F51B1C068A16B0870A06B401C06
:10495000A063E08F401EE0874FF00109FFF7D2F817
:10496000C01BB04202D3701C01D011E086B1E08EB2
:104970000028CED1E08F0028CBD13A4631462046E0
:1049800002F084FD50B12020606584F8508012E070
:1049900084F851A084F85080032068E7A06818B913
:1049A0002068C1688068009084F851A084F8508025
:1049B000606D0028F1D0012059E7000070B5044671
:1049C00090F851006568012806D0B5F5827F3AD18C
:1049D000A568A5BB042836D191B38AB383B394F8F4
:1049E000500001282FD0012084F8500094F8510085
:1049F000042802D0052084F8510000256565216354
:104A0000A386E386A263A387E3872564656494F89D
:104A10005100042819D0E16C274808642748E16C4C
:104A2000C863E16C2648C864E06C0565E38F2168C3
:104A3000A26B0C31E06CFEF7FDFE00BB0AE002E069
:104A4000FFE7012070BD022070BDE16C1D480864C5
:104A50001D48E4E72068416841F001014160A06C15
:104A60000564A06CC563A06CC564A06C0565E38E8D
:104A70002268216B0C32A06CFEF7DCFE30B1606D59
:104A800040F01000606584F85050DAE72068016853
:104A9000490603D4016841F04001016084F8505098
:104AA0002068416841F0200141602068416841F080
:104AB00002014160002070BD61730008D5730008D9
:104AC00035730008577300086B73000870B5214CEC
:104AD0006268002A24D01168814221D1207804F133
:104AE000100501281DD0032825D0052818D11189CB
:104AF000506804F029F8A91C606804F02BFB00251D
:104B00002570606880F83350FEF7FCFF6168086428
:104B1000486C401C486481F83150012081F8320013
:104B200070BD1189506804F00FF8A91C606804F08A
:104B30009FFA022008E0118AD06804F005F8691C89
:104B4000606804F0AFFA042020706068BDE870402F
:104B500003F030BF2C00002070477047704710B53D
:104B6000040003D094F83D0010B107E0012010BD0F
:104B7000002084F83C00204600F01EF8022084F853
:104B80003D00211D206802F07FFD012084F84600D1
:104B900084F83E0084F83F0084F8400084F8410027
:104BA00084F8420084F8430084F8440084F8450007
:104BB00084F83D00002010BD7047000090F83D10C3
:104BC000012901D001207047022180F83D100168C1
:104BD000CA6842F00102CA6000681149884214D0D4
:104BE000B0F1804F11D00F4988420ED00E49884253
:104BF0000BD00E49884208D00D49884205D00D4996
:104C0000884202D00C49884204D1816801F0070132
:104C1000062903D0016841F00101016000207047BE
:104C2000000001400004004000080040000C00406B
:104C300000040140004001400018004070472DE989
:104C4000F04104460068C66805694FF00007A907EF
:104C500013D5B10711D5F91E016101202077206815
:104C600080698007204602D0FFF7E8FF04E000F0EB
:104C70007EF8204600F07CF82777680716D5700785
:104C800014D521686FF004000861022020772068A5
:104C9000806910F4407F204602D0FFF7CFFF04E088
:104CA00000F065F8204600F063F82777280715D54F
:104CB000300713D521686FF00800086104202077C1
:104CC0002068C0698007204602D0FFF7B7FF04E0E4
:104CD00000F04DF8204600F04BF82777E80616D58F
:104CE000F00614D521686FF01000086108202077C5
:104CF0002068C06910F4407F204602D0FFF79EFF75
:104D000004E000F034F8204600F032F82777E80796
:104D100008D0F00706D021686FF001000861204636
:104D200000F028F8280608D5300606D521686FF06F
:104D3000800008612046FFF710FF680608D570065E
:104D400006D521686FF040000861204600F01CF88D
:104D5000A8060AD5B00608D521686FF020000861C2
:104D60002046BDE8F041FFF7F9BEBDE8F08170478D
:104D70007047000000680349884201D1FEF7C8BEB1
:104D80007047000000000140704738B5044690F8B5
:104D90004200202801D0022038BD51B14AB1012083
:104DA000206300206063204602F09CFE216B0129F5
:104DB00001D0012038BD21680A6849680091216846
:104DC0000C3151E8002F42F0100241E80023002B83
:104DD000F5D138BD2DE9F047134C0E466168884285
:104DE00004D03146BDE8F04702F052BF0F4F002516
:104DF00007F13208A94610E02078795D08F8001024
:104E0000401CC0B22070122805D30848323003F08D
:104E100017FE84F800906D1CADB2B542ECD3BDE82E
:104E2000F04705F0F3BB00002400002070030020D1
:104E300070B5044620680C3050E8001F21F49071D2
:104E400040E80012002AF5D12068143050E8001F15
:104E500021F0010140E80012002AF5D1206B012861
:104E600009D120680C3050E8001F21F0100140E803
:104E70000012002AF5D1206840694FF00005400675
:104E800015D52068143050E8001F21F0400140E89B
:104E90000012002AF5D1E06B48B10565E06BFEF722
:104EA00031FB20B1E06BFEF788FB202806D0E585BA
:104EB000202084F842002563002070BD102060642B
:104EC000032070BD084910B54A68904203D0BDE880
:104ED000104002F0CBBE00220A70FFF7A9FFBDE828
:104EE000104005F093BB000024000020F8B50168D5
:104EF00004460868CA684B6910F00F0F4FF00005B0
:104F000059D003F0010602F49077374365D0C1070A
:104F100005D0D10503D5616C41F001016164410701
:104F200005D5D90703D0616C41F0020161648107A6
:104F300005D5D90703D0616C41F004016164010714
:104F400007D502F02001314303D0616C41F0080124
:104F50006164616C00293AD0800604D5900602D5C0
:104F6000204602F0D8FC20684069616CC0F38010D4
:104F7000090700D460B3204602F098FC206840691D
:104F8000400621D52068143050E8001F21F0400170
:104F900040E80012002AF5D1E06BA8B17249016522
:104FA000E06BFEF7F8FA002811D0E06B016D01B05C
:104FB000BDE8F040084783060FD593060DD520467F
:104FC000BDE8F84002F0A7BC2046FFF77BFFF8BD24
:104FD0002046FFF777FF6564F8BD266B2023012E7E
:104FE0007ED1C6067CD5D6067AD50868486800907A
:104FF00048694FF0020640064DD5E26B10684068E4
:105000004FF480770004000C3AD0A18D814237D94B
:10501000E085D069B8422DD020680C3050E8001FE0
:1050200021F4807140E80012002AF5D12068143084
:1050300050E8001F21F0010140E80012002AF5D1DC
:105040002068143050E8001F21F0400140E80012B1
:10505000002AF5D184F84230256320680C3050E8EE
:10506000001F21F0100140E80012002AF5D1E06B8A
:10507000FEF748FA6663A08DE18D401A81B206E022
:10508000A18D8142A8D1D069B842A5D166632046DE
:10509000FFF7A0FEF8BDA08DE18D401A81B2E08D32
:1050A0000028F7D00029F5D020680C3050E8002FF8
:1050B00022F4907240E80027002FF5D120681430C8
:1050C00050E8002F22F0010240E80027002FF5D120
:1050D00084F84230256320680C3050E8002F00E04F
:1050E00006E022F0100240E80023002BF3D1CDE7C8
:1050F00005062BD5150629D594F841002128C9D1DC
:10510000A068B0F5805F01D12069B0B1206A411C70
:105110002162216800784860E08C401E0004000C89
:10512000E084B7D12068C16821F08001C1602068A7
:10513000C16841F04001C160F8BD206A0088C0F339
:1051400008004860206A801C2062E5E74006F3D52D
:105150005006F1D5CA68204622F04002CA6084F8A1
:10516000413000F041F9F8BD6577000870B50400E2
:1051700004D094F84100002510B106E0012070BD74
:1051800084F84050204600F023F8242084F84100A1
:105190002068C16821F40051C160204602F01CFC67
:1051A0002068016921F4904101612068416921F082
:1051B0002A0141612068C16841F40051C160656401
:1051C000202084F8410084F842006563002070BD0F
:1051D0002DE9F04786B0044614216846FBF774FABF
:1051E00058495848DFF858C126681038022203236E
:1051F00000254F054FF0400A4FF4806966454BD1BA
:105200000E6846F400260E60096801F4002105913D
:10521000016841F0040101600068694600F0040083
:10522000059098028DE825000820CDE90330464816
:10523000FEF76AFB464E4548B8463060C6E9017540
:10524000C6E903597561B561F56135624F4630466F
:105250007562FEF785FA08B1FDF7E2FBE663B46319
:105260003B4E3A4860363030C6E903577561B56148
:10527000F5613562756286E801053046FEF770FA21
:1052800008B1FDF7CDFBA663002205213420B463ED
:10529000FEF7E0FC34204EE0DFF8B8C066454CD1A4
:1052A0000E6846F400360E60096801F4003105917D
:1052B000016841F0010101600068694600F00100E9
:1052C00005900C208DE825000720CDE90330224809
:1052D000FEF71AFB1E4E1D48C03648303060C6E946
:1052E0000175C6E903597561B561F5613562C84656
:1052F00030467562FEF734FA08B1FDF791FBE663BC
:10530000B463164E1148C6E903587561B561F5617D
:1053100035626030756286E881043046FEF720FA17
:1053200008B1FDF77DFBA663002205212620B463AA
:10533000FEF790FC2620FEF780FC06B0BDE8F08763
:10534000004C0040403802400008024040600240EB
:10535000440800200044004000000240640900208E
:105360007047704770B5044690F84100202801D07E
:10537000022070BD01B3FAB12162A284E284002050
:105380006064212384F84130A56B144BEB63A56B5B
:10539000134B2B64A56B134BEB64A36B1865206850
:1053A0001346A56B021D2846FEF744FA30B11020C3
:1053B0006064202084F84100012070BD21686FF0F6
:1053C000400008602068143050E8001F41F0800160
:1053D00040E80012002AF5D1002070BD6178000875
:1053E000A37800087377000803498A68904201D1C6
:1053F0000020C87070470000540000207047FEE78E
:105400007CB51A491A48FCF7B3FED8B91948FDF71C
:1054100027F8B8B90620FEF7FFFB1720FEF7FCFBC4
:10542000154C012525602026266010211348CDE962
:1054300000010B46124A13491348FCF71DFC256076
:10544000266008B101207CBD002205210620FEF760
:1054500001FC002205211720FEF7FCFB0620FEF7C9
:10546000ECFB1720FEF7E9FB00207CBD7406002052
:105470004C060020FC070020143C014000000240C4
:10548000000802409C0600204401002000242DED6D
:10549000048B88B0274626469FEDFE9AFE48F6EE1E
:1054A000000AF0EE491AB0EE491AB2EE0E0A0546AD
:1054B00000F0FEFD9FEDF98AF6EE000AB2EE0E0A4C
:1054C000B0EE481A284600F019FEDFEDF59A28469E
:1054D000B0EE690A00F018FEDFEDF28AEE48B0EE99
:1054E000680A243800F038FBEF48F0EE491AB0EEB5
:1054F000491AF6EE000AB2EE0E0A054600F0D8FD93
:10550000B0EE481AF6EE000AB2EE0E0A284600F097
:10551000F5FDB0EE690A284600F0F6FDE248B0EE6F
:10552000680A243800F018FBDFEDE01AB0EE691AC3
:105530009FEDDF9ADF48B2EE080AF0EE490A0090CC
:1055400000F0B6FDB0EE481AF0EE490AB2EE080AD5
:10555000009800F0D3FDB0EE480A009800F0D4FDAA
:105560009FEDD50AD348243800F050FAD34DDFED33
:10557000D49ADFF85083DFF85093A246022300222A
:1055800001A9286803F0EEFBB8B900231A4601A967
:10559000286803F0E7FB0028F7D00598012400F005
:1055A0000107C0F34006C9480021006803F06CFC05
:1055B000C7480021006803F067FCFEF7A3FAFCF778
:1055C0007DFD2CB327B3FEF79DFA0499401A642899
:1055D0001ED8B148243890F8200010B19DED010A82
:1055E00001E0B0EE480AAC48243800F0AFFAAE480B
:1055F000243890F8200020B19DED010AB1EE400A58
:1056000001E0B0EE480AA848243800F09FFA0DE007
:10561000A148B0EE480A243800F098FAA248B0EE4B
:10562000480A243800F092FA002C7DD0002EFCD0DD
:10563000FEF768FA0499401A642875D89D48243802
:1056400090F820000028F0D0BDF80CB098F80000C9
:1056500078B998482438818AC8E901A188ED038A7D
:10566000A8F802B0FEF74EFAC8F81000012088F83A
:105670000000904842462438818AD8F80800081A69
:10568000B0F5805F01DDA0F5005010F5805F01DA14
:1056900000F500505368184400EE100AC2E90101F9
:1056A000B8EEC00ADFED8B0A20EE209AD2ED060A92
:1056B00089EE290ABDEEC00AB8EEC01AB4EEE01AAF
:1056C000F1EE10FA03DDB8EEC00A82ED060AB8F872
:1056D0000200834514D041460690032802D1BBF155
:1056E000010F01D081ED039AA8F802B0FEF70AFA83
:1056F000C8F81000009800F0F3FCBBF1030F03D0D2
:10570000BBF1020F2DD012E0069801280FD198EDC1
:10571000030AF7EE000A30EE290A88ED030A98ED35
:10572000050A30EE200A00E015E188ED050AF0EEEA
:10573000480AB2EE080AB0EE601A009800F0DEFCEB
:1057400098ED030A644930EE490A10EE100A8842C7
:105750006CDA10EE100A6149884267D2B0EE480A4E
:1057600077E0F0EE480AB2EE080AB0EE601A009850
:1057700000F0C4FCFEF7C6F9D8F810204146821AA2
:1057800000EE102AF8EE400A9FED550AC8F8100006
:10579000544A60EE800A10EE900A904201DDF0EE6D
:1057A000680AF5EEC00AF1EE10FA01D2F0EE480AEE
:1057B00091ED030A9FED4C1A4C4A00EE810A81EDEF
:1057C000030A30EE490A10EE100A904204DC10EE93
:1057D000100A474A904201D981ED039A98ED030AD5
:1057E00070EE490A9FED431A9FED430A434900EECC
:1057F000810A10EE100A884202DD9FED410A06E0A0
:1058000010EE100A3F49884201D99FED3F0A29480E
:10581000243800F0F1F898ED030AC0EE290ABDEE35
:10582000E00AB8EEC00A88ED050A89E0DFED370A24
:10583000374920EE200A10EE100A884202DD9FED63
:10584000350A06E010EE100A3349884201D99FED6F
:10585000330A1848243800F0CFF8BBF1020F6FD09C
:1058600098ED030A4846A9F802B189ED380A30EEEE
:10587000490A104989ED399A243989ED3A0A91ED9E
:10588000010A89ED3B0A91ED020A89ED3C0AB1F962
:10589000161045E000008046B00100200000000026
:1058A00000007A44CDCC4C3EF80100200020CB45CE
:1058B0009A99993F9C0200203333333FA400002083
:1058C000000020426C000020E0030020A80000201F
:1058D000AC0000200000A03ACDCC4C3FCDCC4CBF5A
:1058E0006F12833ACDCC4C3E000048440000A042E9
:1058F0000000A0C200007042000096450000AF45C5
:105900000000AF450000AFC50000AFC500009643E2
:105910000040834500408345004083C5004083C567
:1059200000EE101AB8EEC00A89ED3D0A98ED050A9E
:1059300089ED3E0A98ED060A80ED3F0A1EE6FFE774
:1059400098ED030AC0EE290ABDEEE00AB8EEC00ADF
:1059500020EE290A86E7B0EE480A0F4800F04CF81E
:10596000009800F0BDFB88F800A088ED058A88ED5E
:10597000068A89ED388A89ED398A89ED3A8A89ED76
:105980003B8A89ED3C8A89ED3D8A89ED3E8A89ED25
:105990003F8AA9F802A1F1E578020020002802D090
:1059A0001430FDF724B8704770B50D462DED028B0D
:1059B000B0EE608AF0EE408A040017D04C21FAF76E
:1059C00083FE2570B7EE000A84ED030AF0EE480A64
:1059D000B0EE680ABDEC028B04F124009FED051ABD
:1059E000BDE87040F0EE411A00F062BBBDEC028BE6
:1059F00070BD000000401C4610B5040004D084EDCA
:105A0000010AFEF77FF8A06410BD000000280FD047
:105A100010EE101AB1F17E5F01DDB7EE000AB5EEAF
:105A2000C00AF1EE10FA01D29FED020A80ED030ADE
:105A3000704700000000000070B504002DED028BDF
:105A4000B0EE408A32D094F8200004F1240588B3E7
:105A5000207C0028B4F9160000EE100A31D0F8EED0
:105A6000C00A94ED020AD4ED031A70EEC00A01EEEA
:105A7000A00A84ED020A00BFFEF744F8A16C401AA8
:105A8000642810D894ED010A174A10EE100A9042CB
:105A90001EDA10EE100A1549884219D2A068904209
:105AA00016DA884214D2284600F01AFBBDEC028BAD
:105AB000002070BDFFE7284600F012FB0020207494
:105AC000F4E7B8EEC00A012084ED020A2074D3E79F
:105AD000D4ED020AB0EE481ABDEC028B2846BDE8B0
